{
	"SmartContract.sol": {
		"Spasht": {
			"abi": [
				{
					"anonymous": false,
					"inputs": [
						{
							"indexed": true,
							"internalType": "bytes32",
							"name": "qrHash",
							"type": "bytes32"
						}
					],
					"name": "QRRegistered",
					"type": "event"
				},
				{
					"anonymous": false,
					"inputs": [
						{
							"indexed": true,
							"internalType": "bytes32",
							"name": "qrHash",
							"type": "bytes32"
						},
						{
							"indexed": true,
							"internalType": "address",
							"name": "scanner",
							"type": "address"
						},
						{
							"indexed": false,
							"internalType": "uint256",
							"name": "scanTime",
							"type": "uint256"
						},
						{
							"indexed": false,
							"internalType": "string",
							"name": "scanType",
							"type": "string"
						}
					],
					"name": "QRScanned",
					"type": "event"
				},
				{
					"anonymous": false,
					"inputs": [
						{
							"indexed": true,
							"internalType": "bytes32",
							"name": "qrHash",
							"type": "bytes32"
						},
						{
							"indexed": true,
							"internalType": "address",
							"name": "seller",
							"type": "address"
						},
						{
							"indexed": false,
							"internalType": "string",
							"name": "location",
							"type": "string"
						}
					],
					"name": "QRUpdated",
					"type": "event"
				},
				{
					"inputs": [
						{
							"internalType": "bytes32",
							"name": "_qrHash",
							"type": "bytes32"
						}
					],
					"name": "getQR",
					"outputs": [
						{
							"internalType": "string[]",
							"name": "journey",
							"type": "string[]"
						},
						{
							"internalType": "uint256",
							"name": "entryTime",
							"type": "uint256"
						},
						{
							"internalType": "uint256",
							"name": "exitTime",
							"type": "uint256"
						},
						{
							"internalType": "address",
							"name": "seller",
							"type": "address"
						},
						{
							"internalType": "uint256",
							"name": "scanCount",
							"type": "uint256"
						}
					],
					"stateMutability": "view",
					"type": "function"
				},
				{
					"inputs": [
						{
							"internalType": "bytes32",
							"name": "",
							"type": "bytes32"
						}
					],
					"name": "qrs",
					"outputs": [
						{
							"internalType": "uint256",
							"name": "entryTime",
							"type": "uint256"
						},
						{
							"internalType": "uint256",
							"name": "exitTime",
							"type": "uint256"
						},
						{
							"internalType": "address",
							"name": "seller",
							"type": "address"
						},
						{
							"internalType": "uint256",
							"name": "scanCount",
							"type": "uint256"
						},
						{
							"internalType": "address",
							"name": "farmer",
							"type": "address"
						},
						{
							"internalType": "bool",
							"name": "exists",
							"type": "bool"
						},
						{
							"internalType": "bool",
							"name": "inEntryPhase",
							"type": "bool"
						}
					],
					"stateMutability": "view",
					"type": "function"
				},
				{
					"inputs": [
						{
							"internalType": "bytes32",
							"name": "_qrHash",
							"type": "bytes32"
						},
						{
							"internalType": "string",
							"name": "_initialLocation",
							"type": "string"
						}
					],
					"name": "registerQR",
					"outputs": [],
					"stateMutability": "nonpayable",
					"type": "function"
				},
				{
					"inputs": [
						{
							"internalType": "bytes32",
							"name": "_qrHash",
							"type": "bytes32"
						},
						{
							"internalType": "string",
							"name": "_location",
							"type": "string"
						}
					],
					"name": "scanQR",
					"outputs": [],
					"stateMutability": "nonpayable",
					"type": "function"
				}
			],
			"devdoc": {
				"kind": "dev",
				"methods": {},
				"version": 1
			},
			"evm": {
				"assembly": "    /* \"SmartContract.sol\":61:4190  contract Spasht {... */\n  mstore(0x40, 0x80)\n  callvalue\n  dup1\n  iszero\n  tag_1\n  jumpi\n  0x00\n  dup1\n  revert\ntag_1:\n  pop\n  dataSize(sub_0)\n  dup1\n  dataOffset(sub_0)\n  0x00\n  codecopy\n  0x00\n  return\nstop\n\nsub_0: assembly {\n        /* \"SmartContract.sol\":61:4190  contract Spasht {... */\n      mstore(0x40, 0x80)\n      callvalue\n      dup1\n      iszero\n      tag_1\n      jumpi\n      0x00\n      dup1\n      revert\n    tag_1:\n      pop\n      jumpi(tag_2, lt(calldatasize, 0x04))\n      shr(0xe0, calldataload(0x00))\n      dup1\n      0x2f3a7819\n      eq\n      tag_3\n      jumpi\n      dup1\n      0x76ae964c\n      eq\n      tag_4\n      jumpi\n      dup1\n      0x956736b4\n      eq\n      tag_5\n      jumpi\n      dup1\n      0x9eb6608a\n      eq\n      tag_6\n      jumpi\n    tag_2:\n      0x00\n      dup1\n      revert\n        /* \"SmartContract.sol\":1414:3658  function scanQR(bytes32 _qrHash, string memory _location) public {... */\n    tag_3:\n      tag_7\n      0x04\n      dup1\n      calldatasize\n      sub\n      dup2\n      add\n      swap1\n      tag_8\n      swap2\n      swap1\n      tag_9\n      jump\t// in\n    tag_8:\n      tag_10\n      jump\t// in\n    tag_7:\n      stop\n        /* \"SmartContract.sol\":3725:4187  function getQR(bytes32 _qrHash) public view returns (... */\n    tag_4:\n      tag_11\n      0x04\n      dup1\n      calldatasize\n      sub\n      dup2\n      add\n      swap1\n      tag_12\n      swap2\n      swap1\n      tag_13\n      jump\t// in\n    tag_12:\n      tag_14\n      jump\t// in\n    tag_11:\n      mload(0x40)\n      tag_15\n      swap6\n      swap5\n      swap4\n      swap3\n      swap2\n      swap1\n      tag_16\n      jump\t// in\n    tag_15:\n      mload(0x40)\n      dup1\n      swap2\n      sub\n      swap1\n      return\n        /* \"SmartContract.sol\":813:1352  function registerQR(bytes32 _qrHash, string memory _initialLocation) public {... */\n    tag_5:\n      tag_17\n      0x04\n      dup1\n      calldatasize\n      sub\n      dup2\n      add\n      swap1\n      tag_18\n      swap2\n      swap1\n      tag_9\n      jump\t// in\n    tag_18:\n      tag_19\n      jump\t// in\n    tag_17:\n      stop\n        /* \"SmartContract.sol\":376:409  mapping(bytes32 => QR) public qrs */\n    tag_6:\n      tag_20\n      0x04\n      dup1\n      calldatasize\n      sub\n      dup2\n      add\n      swap1\n      tag_21\n      swap2\n      swap1\n      tag_13\n      jump\t// in\n    tag_21:\n      tag_22\n      jump\t// in\n    tag_20:\n      mload(0x40)\n      tag_23\n      swap8\n      swap7\n      swap6\n      swap5\n      swap4\n      swap3\n      swap2\n      swap1\n      tag_24\n      jump\t// in\n    tag_23:\n      mload(0x40)\n      dup1\n      swap2\n      sub\n      swap1\n      return\n        /* \"SmartContract.sol\":1414:3658  function scanQR(bytes32 _qrHash, string memory _location) public {... */\n    tag_10:\n        /* \"SmartContract.sol\":1498:1501  qrs */\n      0x00\n        /* \"SmartContract.sol\":1498:1510  qrs[_qrHash] */\n      dup1\n        /* \"SmartContract.sol\":1502:1509  _qrHash */\n      dup4\n        /* \"SmartContract.sol\":1498:1510  qrs[_qrHash] */\n      dup2\n      mstore\n      0x20\n      add\n      swap1\n      dup2\n      mstore\n      0x20\n      add\n      0x00\n      keccak256\n        /* \"SmartContract.sol\":1498:1517  qrs[_qrHash].exists */\n      0x05\n      add\n      0x14\n      swap1\n      sload\n      swap1\n      0x0100\n      exp\n      swap1\n      div\n      0xff\n      and\n        /* \"SmartContract.sol\":1490:1534  require(qrs[_qrHash].exists, \"QR not found\") */\n      tag_26\n      jumpi\n      mload(0x40)\n      0x08c379a000000000000000000000000000000000000000000000000000000000\n      dup2\n      mstore\n      0x04\n      add\n      tag_27\n      swap1\n      tag_28\n      jump\t// in\n    tag_27:\n      mload(0x40)\n      dup1\n      swap2\n      sub\n      swap1\n      revert\n    tag_26:\n        /* \"SmartContract.sol\":1545:1558  QR storage qr */\n      0x00\n        /* \"SmartContract.sol\":1561:1564  qrs */\n      dup1\n        /* \"SmartContract.sol\":1561:1573  qrs[_qrHash] */\n      0x00\n        /* \"SmartContract.sol\":1565:1572  _qrHash */\n      dup5\n        /* \"SmartContract.sol\":1561:1573  qrs[_qrHash] */\n      dup2\n      mstore\n      0x20\n      add\n      swap1\n      dup2\n      mstore\n      0x20\n      add\n      0x00\n      keccak256\n        /* \"SmartContract.sol\":1545:1573  QR storage qr = qrs[_qrHash] */\n      swap1\n      pop\n        /* \"SmartContract.sol\":1707:1709  qr */\n      dup1\n        /* \"SmartContract.sol\":1707:1722  qr.inEntryPhase */\n      0x05\n      add\n      0x15\n      swap1\n      sload\n      swap1\n      0x0100\n      exp\n      swap1\n      div\n      0xff\n      and\n        /* \"SmartContract.sol\":1706:1722  !qr.inEntryPhase */\n      iszero\n        /* \"SmartContract.sol\":1698:1801  require(!qr.inEntryPhase, \"QR is currently in entry phase, please wait for the current seller to exit\") */\n      tag_29\n      jumpi\n      mload(0x40)\n      0x08c379a000000000000000000000000000000000000000000000000000000000\n      dup2\n      mstore\n      0x04\n      add\n      tag_30\n      swap1\n      tag_31\n      jump\t// in\n    tag_30:\n      mload(0x40)\n      dup1\n      swap2\n      sub\n      swap1\n      revert\n    tag_29:\n        /* \"SmartContract.sol\":1865:1867  qr */\n      dup1\n        /* \"SmartContract.sol\":1865:1874  qr.farmer */\n      0x05\n      add\n      0x00\n      swap1\n      sload\n      swap1\n      0x0100\n      exp\n      swap1\n      div\n      0xffffffffffffffffffffffffffffffffffffffff\n      and\n        /* \"SmartContract.sol\":1851:1874  msg.sender == qr.farmer */\n      0xffffffffffffffffffffffffffffffffffffffff\n      and\n        /* \"SmartContract.sol\":1851:1861  msg.sender */\n      caller\n        /* \"SmartContract.sol\":1851:1874  msg.sender == qr.farmer */\n      0xffffffffffffffffffffffffffffffffffffffff\n      and\n      eq\n        /* \"SmartContract.sol\":1851:1895  msg.sender == qr.farmer && qr.scanCount == 0 */\n      dup1\n      iszero\n      tag_32\n      jumpi\n      pop\n        /* \"SmartContract.sol\":1894:1895  0 */\n      0x00\n        /* \"SmartContract.sol\":1878:1880  qr */\n      dup2\n        /* \"SmartContract.sol\":1878:1890  qr.scanCount */\n      0x04\n      add\n      sload\n        /* \"SmartContract.sol\":1878:1895  qr.scanCount == 0 */\n      eq\n        /* \"SmartContract.sol\":1851:1895  msg.sender == qr.farmer && qr.scanCount == 0 */\n    tag_32:\n        /* \"SmartContract.sol\":1847:3570  if (msg.sender == qr.farmer && qr.scanCount == 0) {... */\n      iszero\n      tag_33\n      jumpi\n        /* \"SmartContract.sol\":2015:2030  block.timestamp */\n      timestamp\n        /* \"SmartContract.sol\":2001:2003  qr */\n      dup2\n        /* \"SmartContract.sol\":2001:2012  qr.exitTime */\n      0x02\n      add\n        /* \"SmartContract.sol\":2001:2030  qr.exitTime = block.timestamp */\n      dup2\n      swap1\n      sstore\n      pop\n        /* \"SmartContract.sol\":2045:2047  qr */\n      dup1\n        /* \"SmartContract.sol\":2045:2055  qr.journey */\n      0x00\n      add\n        /* \"SmartContract.sol\":2061:2070  _location */\n      dup3\n        /* \"SmartContract.sol\":2045:2071  qr.journey.push(_location) */\n      swap1\n      dup1\n      0x01\n      dup2\n      sload\n      add\n      dup1\n      dup3\n      sstore\n      dup1\n      swap2\n      pop\n      pop\n      0x01\n      swap1\n      sub\n      swap1\n      0x00\n      mstore\n      keccak256(0x00, 0x20)\n      add\n      0x00\n      swap1\n      swap2\n      swap1\n      swap2\n      swap1\n      swap2\n      pop\n      swap1\n      dup2\n      tag_35\n      swap2\n      swap1\n      tag_36\n      jump\t// in\n    tag_35:\n      pop\n        /* \"SmartContract.sol\":2101:2102  1 */\n      0x01\n        /* \"SmartContract.sol\":2086:2088  qr */\n      dup2\n        /* \"SmartContract.sol\":2086:2098  qr.scanCount */\n      0x04\n      add\n        /* \"SmartContract.sol\":2086:2102  qr.scanCount = 1 */\n      dup2\n      swap1\n      sstore\n      pop\n        /* \"SmartContract.sol\":2141:2151  msg.sender */\n      caller\n        /* \"SmartContract.sol\":2122:2189  QRScanned(_qrHash, msg.sender, block.timestamp, \"Farmer Exit Scan\") */\n      0xffffffffffffffffffffffffffffffffffffffff\n      and\n        /* \"SmartContract.sol\":2132:2139  _qrHash */\n      dup4\n        /* \"SmartContract.sol\":2122:2189  QRScanned(_qrHash, msg.sender, block.timestamp, \"Farmer Exit Scan\") */\n      0x8572d46a1ce70be73c5e8aa89764d91f165342a22064d26c83a41e92fd8707bf\n        /* \"SmartContract.sol\":2153:2168  block.timestamp */\n      timestamp\n        /* \"SmartContract.sol\":2122:2189  QRScanned(_qrHash, msg.sender, block.timestamp, \"Farmer Exit Scan\") */\n      mload(0x40)\n      tag_37\n      swap2\n      swap1\n      tag_38\n      jump\t// in\n    tag_37:\n      mload(0x40)\n      dup1\n      swap2\n      sub\n      swap1\n      log3\n        /* \"SmartContract.sol\":1847:3570  if (msg.sender == qr.farmer && qr.scanCount == 0) {... */\n      jump(tag_39)\n    tag_33:\n        /* \"SmartContract.sol\":2269:2270  1 */\n      0x01\n        /* \"SmartContract.sol\":2253:2255  qr */\n      dup2\n        /* \"SmartContract.sol\":2253:2265  qr.scanCount */\n      0x04\n      add\n      sload\n        /* \"SmartContract.sol\":2253:2270  qr.scanCount == 1 */\n      sub\n        /* \"SmartContract.sol\":2249:3570  if (qr.scanCount == 1) {... */\n      tag_40\n      jumpi\n        /* \"SmartContract.sol\":2369:2384  block.timestamp */\n      timestamp\n        /* \"SmartContract.sol\":2354:2356  qr */\n      dup2\n        /* \"SmartContract.sol\":2354:2366  qr.entryTime */\n      0x01\n      add\n        /* \"SmartContract.sol\":2354:2384  qr.entryTime = block.timestamp */\n      dup2\n      swap1\n      sstore\n      pop\n        /* \"SmartContract.sol\":2430:2440  msg.sender */\n      caller\n        /* \"SmartContract.sol\":2418:2420  qr */\n      dup2\n        /* \"SmartContract.sol\":2418:2427  qr.seller */\n      0x03\n      add\n      0x00\n        /* \"SmartContract.sol\":2418:2440  qr.seller = msg.sender */\n      0x0100\n      exp\n      dup2\n      sload\n      dup2\n      0xffffffffffffffffffffffffffffffffffffffff\n      mul\n      not\n      and\n      swap1\n      dup4\n      0xffffffffffffffffffffffffffffffffffffffff\n      and\n      mul\n      or\n      swap1\n      sstore\n      pop\n        /* \"SmartContract.sol\":2497:2498  2 */\n      0x02\n        /* \"SmartContract.sol\":2482:2484  qr */\n      dup2\n        /* \"SmartContract.sol\":2482:2494  qr.scanCount */\n      0x04\n      add\n        /* \"SmartContract.sol\":2482:2498  qr.scanCount = 2 */\n      dup2\n      swap1\n      sstore\n      pop\n        /* \"SmartContract.sol\":2568:2570  qr */\n      dup1\n        /* \"SmartContract.sol\":2568:2578  qr.journey */\n      0x00\n      add\n        /* \"SmartContract.sol\":2584:2593  _location */\n      dup3\n        /* \"SmartContract.sol\":2568:2594  qr.journey.push(_location) */\n      swap1\n      dup1\n      0x01\n      dup2\n      sload\n      add\n      dup1\n      dup3\n      sstore\n      dup1\n      swap2\n      pop\n      pop\n      0x01\n      swap1\n      sub\n      swap1\n      0x00\n      mstore\n      keccak256(0x00, 0x20)\n      add\n      0x00\n      swap1\n      swap2\n      swap1\n      swap2\n      swap1\n      swap2\n      pop\n      swap1\n      dup2\n      tag_42\n      swap2\n      swap1\n      tag_36\n      jump\t// in\n    tag_42:\n      pop\n        /* \"SmartContract.sol\":2660:2664  true */\n      0x01\n        /* \"SmartContract.sol\":2642:2644  qr */\n      dup2\n        /* \"SmartContract.sol\":2642:2657  qr.inEntryPhase */\n      0x05\n      add\n      0x15\n        /* \"SmartContract.sol\":2642:2664  qr.inEntryPhase = true */\n      0x0100\n      exp\n      dup2\n      sload\n      dup2\n      0xff\n      mul\n      not\n      and\n      swap1\n      dup4\n      iszero\n      iszero\n      mul\n      or\n      swap1\n      sstore\n      pop\n        /* \"SmartContract.sol\":2740:2750  msg.sender */\n      caller\n        /* \"SmartContract.sol\":2721:2789  QRScanned(_qrHash, msg.sender, block.timestamp, \"Seller Entry Scan\") */\n      0xffffffffffffffffffffffffffffffffffffffff\n      and\n        /* \"SmartContract.sol\":2731:2738  _qrHash */\n      dup4\n        /* \"SmartContract.sol\":2721:2789  QRScanned(_qrHash, msg.sender, block.timestamp, \"Seller Entry Scan\") */\n      0x8572d46a1ce70be73c5e8aa89764d91f165342a22064d26c83a41e92fd8707bf\n        /* \"SmartContract.sol\":2752:2767  block.timestamp */\n      timestamp\n        /* \"SmartContract.sol\":2721:2789  QRScanned(_qrHash, msg.sender, block.timestamp, \"Seller Entry Scan\") */\n      mload(0x40)\n      tag_43\n      swap2\n      swap1\n      tag_44\n      jump\t// in\n    tag_43:\n      mload(0x40)\n      dup1\n      swap2\n      sub\n      swap1\n      log3\n        /* \"SmartContract.sol\":2249:3570  if (qr.scanCount == 1) {... */\n      jump(tag_45)\n    tag_40:\n        /* \"SmartContract.sol\":2884:2885  1 */\n      0x01\n        /* \"SmartContract.sol\":2869:2871  qr */\n      dup2\n        /* \"SmartContract.sol\":2869:2881  qr.scanCount */\n      0x04\n      add\n      sload\n        /* \"SmartContract.sol\":2869:2885  qr.scanCount > 1 */\n      gt\n        /* \"SmartContract.sol\":2865:3570  if (qr.scanCount > 1) {... */\n      iszero\n      tag_46\n      jumpi\n        /* \"SmartContract.sol\":2990:2992  qr */\n      dup1\n        /* \"SmartContract.sol\":2990:3005  qr.inEntryPhase */\n      0x05\n      add\n      0x15\n      swap1\n      sload\n      swap1\n      0x0100\n      exp\n      swap1\n      div\n      0xff\n      and\n        /* \"SmartContract.sol\":2985:3467  if (!qr.inEntryPhase) {... */\n      tag_47\n      jumpi\n        /* \"SmartContract.sol\":3077:3092  block.timestamp */\n      timestamp\n        /* \"SmartContract.sol\":3063:3065  qr */\n      dup2\n        /* \"SmartContract.sol\":3063:3074  qr.exitTime */\n      0x02\n      add\n        /* \"SmartContract.sol\":3063:3092  qr.exitTime = block.timestamp */\n      dup2\n      swap1\n      sstore\n      pop\n        /* \"SmartContract.sol\":3129:3131  qr */\n      dup1\n        /* \"SmartContract.sol\":3129:3141  qr.scanCount */\n      0x04\n      add\n      0x00\n        /* \"SmartContract.sol\":3129:3143  qr.scanCount++ */\n      dup2\n      sload\n      dup1\n      swap3\n      swap2\n      swap1\n      tag_48\n      swap1\n      tag_49\n      jump\t// in\n    tag_48:\n      swap2\n      swap1\n      pop\n      sstore\n      pop\n        /* \"SmartContract.sol\":3221:3223  qr */\n      dup1\n        /* \"SmartContract.sol\":3221:3231  qr.journey */\n      0x00\n      add\n        /* \"SmartContract.sol\":3237:3246  _location */\n      dup3\n        /* \"SmartContract.sol\":3221:3247  qr.journey.push(_location) */\n      swap1\n      dup1\n      0x01\n      dup2\n      sload\n      add\n      dup1\n      dup3\n      sstore\n      dup1\n      swap2\n      pop\n      pop\n      0x01\n      swap1\n      sub\n      swap1\n      0x00\n      mstore\n      keccak256(0x00, 0x20)\n      add\n      0x00\n      swap1\n      swap2\n      swap1\n      swap2\n      swap1\n      swap2\n      pop\n      swap1\n      dup2\n      tag_51\n      swap2\n      swap1\n      tag_36\n      jump\t// in\n    tag_51:\n      pop\n        /* \"SmartContract.sol\":3312:3317  false */\n      0x00\n        /* \"SmartContract.sol\":3294:3296  qr */\n      dup2\n        /* \"SmartContract.sol\":3294:3309  qr.inEntryPhase */\n      0x05\n      add\n      0x15\n        /* \"SmartContract.sol\":3294:3317  qr.inEntryPhase = false */\n      0x0100\n      exp\n      dup2\n      sload\n      dup2\n      0xff\n      mul\n      not\n      and\n      swap1\n      dup4\n      iszero\n      iszero\n      mul\n      or\n      swap1\n      sstore\n      pop\n        /* \"SmartContract.sol\":3403:3413  msg.sender */\n      caller\n        /* \"SmartContract.sol\":3384:3451  QRScanned(_qrHash, msg.sender, block.timestamp, \"Seller Exit Scan\") */\n      0xffffffffffffffffffffffffffffffffffffffff\n      and\n        /* \"SmartContract.sol\":3394:3401  _qrHash */\n      dup4\n        /* \"SmartContract.sol\":3384:3451  QRScanned(_qrHash, msg.sender, block.timestamp, \"Seller Exit Scan\") */\n      0x8572d46a1ce70be73c5e8aa89764d91f165342a22064d26c83a41e92fd8707bf\n        /* \"SmartContract.sol\":3415:3430  block.timestamp */\n      timestamp\n        /* \"SmartContract.sol\":3384:3451  QRScanned(_qrHash, msg.sender, block.timestamp, \"Seller Exit Scan\") */\n      mload(0x40)\n      tag_52\n      swap2\n      swap1\n      tag_53\n      jump\t// in\n    tag_52:\n      mload(0x40)\n      dup1\n      swap2\n      sub\n      swap1\n      log3\n        /* \"SmartContract.sol\":2985:3467  if (!qr.inEntryPhase) {... */\n    tag_47:\n        /* \"SmartContract.sol\":2865:3570  if (qr.scanCount > 1) {... */\n      jump(tag_54)\n    tag_46:\n        /* \"SmartContract.sol\":3509:3558  revert(\"Invalid state or scan count for the QR.\") */\n      mload(0x40)\n      0x08c379a000000000000000000000000000000000000000000000000000000000\n      dup2\n      mstore\n      0x04\n      add\n      tag_55\n      swap1\n      tag_56\n      jump\t// in\n    tag_55:\n      mload(0x40)\n      dup1\n      swap2\n      sub\n      swap1\n      revert\n        /* \"SmartContract.sol\":2865:3570  if (qr.scanCount > 1) {... */\n    tag_54:\n        /* \"SmartContract.sol\":2249:3570  if (qr.scanCount == 1) {... */\n    tag_45:\n        /* \"SmartContract.sol\":1847:3570  if (msg.sender == qr.farmer && qr.scanCount == 0) {... */\n    tag_39:\n        /* \"SmartContract.sol\":3606:3616  msg.sender */\n      caller\n        /* \"SmartContract.sol\":3587:3628  QRUpdated(_qrHash, msg.sender, _location) */\n      0xffffffffffffffffffffffffffffffffffffffff\n      and\n        /* \"SmartContract.sol\":3597:3604  _qrHash */\n      dup4\n        /* \"SmartContract.sol\":3587:3628  QRUpdated(_qrHash, msg.sender, _location) */\n      0x4109760b15a1e63082623016f83b009f3fd797cbfde9ab162a5ce740298497f4\n        /* \"SmartContract.sol\":3618:3627  _location */\n      dup5\n        /* \"SmartContract.sol\":3587:3628  QRUpdated(_qrHash, msg.sender, _location) */\n      mload(0x40)\n      tag_57\n      swap2\n      swap1\n      tag_58\n      jump\t// in\n    tag_57:\n      mload(0x40)\n      dup1\n      swap2\n      sub\n      swap1\n      log3\n        /* \"SmartContract.sol\":1479:3658  {... */\n      pop\n        /* \"SmartContract.sol\":1414:3658  function scanQR(bytes32 _qrHash, string memory _location) public {... */\n      pop\n      pop\n      jump\t// out\n        /* \"SmartContract.sol\":3725:4187  function getQR(bytes32 _qrHash) public view returns (... */\n    tag_14:\n        /* \"SmartContract.sol\":3788:3811  string[] memory journey */\n      0x60\n        /* \"SmartContract.sol\":3822:3839  uint256 entryTime */\n      0x00\n        /* \"SmartContract.sol\":3850:3866  uint256 exitTime */\n      dup1\n        /* \"SmartContract.sol\":3877:3891  address seller */\n      0x00\n        /* \"SmartContract.sol\":3902:3919  uint256 scanCount */\n      dup1\n        /* \"SmartContract.sol\":3946:3949  qrs */\n      0x00\n        /* \"SmartContract.sol\":3946:3958  qrs[_qrHash] */\n      dup1\n        /* \"SmartContract.sol\":3950:3957  _qrHash */\n      dup8\n        /* \"SmartContract.sol\":3946:3958  qrs[_qrHash] */\n      dup2\n      mstore\n      0x20\n      add\n      swap1\n      dup2\n      mstore\n      0x20\n      add\n      0x00\n      keccak256\n        /* \"SmartContract.sol\":3946:3965  qrs[_qrHash].exists */\n      0x05\n      add\n      0x14\n      swap1\n      sload\n      swap1\n      0x0100\n      exp\n      swap1\n      div\n      0xff\n      and\n        /* \"SmartContract.sol\":3938:3982  require(qrs[_qrHash].exists, \"QR not found\") */\n      tag_60\n      jumpi\n      mload(0x40)\n      0x08c379a000000000000000000000000000000000000000000000000000000000\n      dup2\n      mstore\n      0x04\n      add\n      tag_61\n      swap1\n      tag_28\n      jump\t// in\n    tag_61:\n      mload(0x40)\n      dup1\n      swap2\n      sub\n      swap1\n      revert\n    tag_60:\n        /* \"SmartContract.sol\":3993:4006  QR storage qr */\n      0x00\n        /* \"SmartContract.sol\":4009:4012  qrs */\n      dup1\n        /* \"SmartContract.sol\":4009:4021  qrs[_qrHash] */\n      0x00\n        /* \"SmartContract.sol\":4013:4020  _qrHash */\n      dup9\n        /* \"SmartContract.sol\":4009:4021  qrs[_qrHash] */\n      dup2\n      mstore\n      0x20\n      add\n      swap1\n      dup2\n      mstore\n      0x20\n      add\n      0x00\n      keccak256\n        /* \"SmartContract.sol\":3993:4021  QR storage qr = qrs[_qrHash] */\n      swap1\n      pop\n        /* \"SmartContract.sol\":4054:4056  qr */\n      dup1\n        /* \"SmartContract.sol\":4054:4064  qr.journey */\n      0x00\n      add\n        /* \"SmartContract.sol\":4079:4081  qr */\n      dup2\n        /* \"SmartContract.sol\":4079:4091  qr.entryTime */\n      0x01\n      add\n      sload\n        /* \"SmartContract.sol\":4106:4108  qr */\n      dup3\n        /* \"SmartContract.sol\":4106:4117  qr.exitTime */\n      0x02\n      add\n      sload\n        /* \"SmartContract.sol\":4132:4134  qr */\n      dup4\n        /* \"SmartContract.sol\":4132:4141  qr.seller */\n      0x03\n      add\n      0x00\n      swap1\n      sload\n      swap1\n      0x0100\n      exp\n      swap1\n      div\n      0xffffffffffffffffffffffffffffffffffffffff\n      and\n        /* \"SmartContract.sol\":4156:4158  qr */\n      dup5\n        /* \"SmartContract.sol\":4156:4168  qr.scanCount */\n      0x04\n      add\n      sload\n        /* \"SmartContract.sol\":4032:4179  return (... */\n      dup5\n      dup1\n      sload\n      dup1\n      0x20\n      mul\n      0x20\n      add\n      mload(0x40)\n      swap1\n      dup2\n      add\n      0x40\n      mstore\n      dup1\n      swap3\n      swap2\n      swap1\n      dup2\n      dup2\n      mstore\n      0x20\n      add\n      0x00\n      swap1\n    tag_62:\n      dup3\n      dup3\n      lt\n      iszero\n      tag_63\n      jumpi\n      dup4\n      dup3\n      swap1\n      0x00\n      mstore\n      keccak256(0x00, 0x20)\n      add\n      dup1\n      sload\n      tag_65\n      swap1\n      tag_66\n      jump\t// in\n    tag_65:\n      dup1\n      0x1f\n      add\n      0x20\n      dup1\n      swap2\n      div\n      mul\n      0x20\n      add\n      mload(0x40)\n      swap1\n      dup2\n      add\n      0x40\n      mstore\n      dup1\n      swap3\n      swap2\n      swap1\n      dup2\n      dup2\n      mstore\n      0x20\n      add\n      dup3\n      dup1\n      sload\n      tag_67\n      swap1\n      tag_66\n      jump\t// in\n    tag_67:\n      dup1\n      iszero\n      tag_68\n      jumpi\n      dup1\n      0x1f\n      lt\n      tag_69\n      jumpi\n      0x0100\n      dup1\n      dup4\n      sload\n      div\n      mul\n      dup4\n      mstore\n      swap2\n      0x20\n      add\n      swap2\n      jump(tag_68)\n    tag_69:\n      dup3\n      add\n      swap2\n      swap1\n      0x00\n      mstore\n      keccak256(0x00, 0x20)\n      swap1\n    tag_70:\n      dup2\n      sload\n      dup2\n      mstore\n      swap1\n      0x01\n      add\n      swap1\n      0x20\n      add\n      dup1\n      dup4\n      gt\n      tag_70\n      jumpi\n      dup3\n      swap1\n      sub\n      0x1f\n      and\n      dup3\n      add\n      swap2\n    tag_68:\n      pop\n      pop\n      pop\n      pop\n      pop\n      dup2\n      mstore\n      0x20\n      add\n      swap1\n      0x01\n      add\n      swap1\n      jump(tag_62)\n    tag_63:\n      pop\n      pop\n      pop\n      pop\n      swap5\n      pop\n      swap6\n      pop\n      swap6\n      pop\n      swap6\n      pop\n      swap6\n      pop\n      swap6\n      pop\n      pop\n        /* \"SmartContract.sol\":3725:4187  function getQR(bytes32 _qrHash) public view returns (... */\n      swap2\n      swap4\n      swap6\n      swap1\n      swap3\n      swap5\n      pop\n      jump\t// out\n        /* \"SmartContract.sol\":813:1352  function registerQR(bytes32 _qrHash, string memory _initialLocation) public {... */\n    tag_19:\n        /* \"SmartContract.sol\":909:912  qrs */\n      0x00\n        /* \"SmartContract.sol\":909:921  qrs[_qrHash] */\n      dup1\n        /* \"SmartContract.sol\":913:920  _qrHash */\n      dup4\n        /* \"SmartContract.sol\":909:921  qrs[_qrHash] */\n      dup2\n      mstore\n      0x20\n      add\n      swap1\n      dup2\n      mstore\n      0x20\n      add\n      0x00\n      keccak256\n        /* \"SmartContract.sol\":909:928  qrs[_qrHash].exists */\n      0x05\n      add\n      0x14\n      swap1\n      sload\n      swap1\n      0x0100\n      exp\n      swap1\n      div\n      0xff\n      and\n        /* \"SmartContract.sol\":908:928  !qrs[_qrHash].exists */\n      iszero\n        /* \"SmartContract.sol\":900:950  require(!qrs[_qrHash].exists, \"QR already exists\") */\n      tag_72\n      jumpi\n      mload(0x40)\n      0x08c379a000000000000000000000000000000000000000000000000000000000\n      dup2\n      mstore\n      0x04\n      add\n      tag_73\n      swap1\n      tag_74\n      jump\t// in\n    tag_73:\n      mload(0x40)\n      dup1\n      swap2\n      sub\n      swap1\n      revert\n    tag_72:\n        /* \"SmartContract.sol\":963:979  QR storage newQR */\n      0x00\n        /* \"SmartContract.sol\":982:985  qrs */\n      dup1\n        /* \"SmartContract.sol\":982:994  qrs[_qrHash] */\n      0x00\n        /* \"SmartContract.sol\":986:993  _qrHash */\n      dup5\n        /* \"SmartContract.sol\":982:994  qrs[_qrHash] */\n      dup2\n      mstore\n      0x20\n      add\n      swap1\n      dup2\n      mstore\n      0x20\n      add\n      0x00\n      keccak256\n        /* \"SmartContract.sol\":963:994  QR storage newQR = qrs[_qrHash] */\n      swap1\n      pop\n        /* \"SmartContract.sol\":1023:1038  block.timestamp */\n      timestamp\n        /* \"SmartContract.sol\":1005:1010  newQR */\n      dup2\n        /* \"SmartContract.sol\":1005:1020  newQR.entryTime */\n      0x01\n      add\n        /* \"SmartContract.sol\":1005:1038  newQR.entryTime = block.timestamp */\n      dup2\n      swap1\n      sstore\n      pop\n        /* \"SmartContract.sol\":1066:1081  block.timestamp */\n      timestamp\n        /* \"SmartContract.sol\":1049:1054  newQR */\n      dup2\n        /* \"SmartContract.sol\":1049:1063  newQR.exitTime */\n      0x02\n      add\n        /* \"SmartContract.sol\":1049:1081  newQR.exitTime = block.timestamp */\n      dup2\n      swap1\n      sstore\n      pop\n        /* \"SmartContract.sol\":1121:1126  newQR */\n      dup1\n        /* \"SmartContract.sol\":1121:1134  newQR.journey */\n      0x00\n      add\n        /* \"SmartContract.sol\":1140:1156  _initialLocation */\n      dup3\n        /* \"SmartContract.sol\":1121:1157  newQR.journey.push(_initialLocation) */\n      swap1\n      dup1\n      0x01\n      dup2\n      sload\n      add\n      dup1\n      dup3\n      sstore\n      dup1\n      swap2\n      pop\n      pop\n      0x01\n      swap1\n      sub\n      swap1\n      0x00\n      mstore\n      keccak256(0x00, 0x20)\n      add\n      0x00\n      swap1\n      swap2\n      swap1\n      swap2\n      swap1\n      swap2\n      pop\n      swap1\n      dup2\n      tag_76\n      swap2\n      swap1\n      tag_36\n      jump\t// in\n    tag_76:\n      pop\n        /* \"SmartContract.sol\":1183:1187  true */\n      0x01\n        /* \"SmartContract.sol\":1168:1173  newQR */\n      dup2\n        /* \"SmartContract.sol\":1168:1180  newQR.exists */\n      0x05\n      add\n      0x14\n        /* \"SmartContract.sol\":1168:1187  newQR.exists = true */\n      0x0100\n      exp\n      dup2\n      sload\n      dup2\n      0xff\n      mul\n      not\n      and\n      swap1\n      dup4\n      iszero\n      iszero\n      mul\n      or\n      swap1\n      sstore\n      pop\n        /* \"SmartContract.sol\":1213:1223  msg.sender */\n      caller\n        /* \"SmartContract.sol\":1198:1203  newQR */\n      dup2\n        /* \"SmartContract.sol\":1198:1210  newQR.farmer */\n      0x05\n      add\n      0x00\n        /* \"SmartContract.sol\":1198:1223  newQR.farmer = msg.sender */\n      0x0100\n      exp\n      dup2\n      sload\n      dup2\n      0xffffffffffffffffffffffffffffffffffffffff\n      mul\n      not\n      and\n      swap1\n      dup4\n      0xffffffffffffffffffffffffffffffffffffffff\n      and\n      mul\n      or\n      swap1\n      sstore\n      pop\n        /* \"SmartContract.sol\":1256:1260  true */\n      0x01\n        /* \"SmartContract.sol\":1235:1240  newQR */\n      dup2\n        /* \"SmartContract.sol\":1235:1253  newQR.inEntryPhase */\n      0x05\n      add\n      0x15\n        /* \"SmartContract.sol\":1235:1260  newQR.inEntryPhase = true */\n      0x0100\n      exp\n      dup2\n      sload\n      dup2\n      0xff\n      mul\n      not\n      and\n      swap1\n      dup4\n      iszero\n      iszero\n      mul\n      or\n      swap1\n      sstore\n      pop\n        /* \"SmartContract.sol\":1336:1343  _qrHash */\n      dup3\n        /* \"SmartContract.sol\":1323:1344  QRRegistered(_qrHash) */\n      0x06d55cef0337de42600b98c8b7b82394ae6f1315b0e0d45e103bb8fd3fb01158\n      mload(0x40)\n      mload(0x40)\n      dup1\n      swap2\n      sub\n      swap1\n      log2\n        /* \"SmartContract.sol\":889:1352  {... */\n      pop\n        /* \"SmartContract.sol\":813:1352  function registerQR(bytes32 _qrHash, string memory _initialLocation) public {... */\n      pop\n      pop\n      jump\t// out\n        /* \"SmartContract.sol\":376:409  mapping(bytes32 => QR) public qrs */\n    tag_22:\n      mstore(0x20, 0x00)\n      dup1\n      0x00\n      mstore\n      keccak256(0x00, 0x40)\n      0x00\n      swap2\n      pop\n      swap1\n      pop\n      dup1\n      0x01\n      add\n      sload\n      swap1\n      dup1\n      0x02\n      add\n      sload\n      swap1\n      dup1\n      0x03\n      add\n      0x00\n      swap1\n      sload\n      swap1\n      0x0100\n      exp\n      swap1\n      div\n      0xffffffffffffffffffffffffffffffffffffffff\n      and\n      swap1\n      dup1\n      0x04\n      add\n      sload\n      swap1\n      dup1\n      0x05\n      add\n      0x00\n      swap1\n      sload\n      swap1\n      0x0100\n      exp\n      swap1\n      div\n      0xffffffffffffffffffffffffffffffffffffffff\n      and\n      swap1\n      dup1\n      0x05\n      add\n      0x14\n      swap1\n      sload\n      swap1\n      0x0100\n      exp\n      swap1\n      div\n      0xff\n      and\n      swap1\n      dup1\n      0x05\n      add\n      0x15\n      swap1\n      sload\n      swap1\n      0x0100\n      exp\n      swap1\n      div\n      0xff\n      and\n      swap1\n      pop\n      dup8\n      jump\t// out\n        /* \"#utility.yul\":7:82   */\n    tag_77:\n        /* \"#utility.yul\":40:46   */\n      0x00\n        /* \"#utility.yul\":73:75   */\n      0x40\n        /* \"#utility.yul\":67:76   */\n      mload\n        /* \"#utility.yul\":57:76   */\n      swap1\n      pop\n        /* \"#utility.yul\":7:82   */\n      swap1\n      jump\t// out\n        /* \"#utility.yul\":88:205   */\n    tag_78:\n        /* \"#utility.yul\":197:198   */\n      0x00\n        /* \"#utility.yul\":194:195   */\n      dup1\n        /* \"#utility.yul\":187:199   */\n      revert\n        /* \"#utility.yul\":211:328   */\n    tag_79:\n        /* \"#utility.yul\":320:321   */\n      0x00\n        /* \"#utility.yul\":317:318   */\n      dup1\n        /* \"#utility.yul\":310:322   */\n      revert\n        /* \"#utility.yul\":334:411   */\n    tag_80:\n        /* \"#utility.yul\":371:378   */\n      0x00\n        /* \"#utility.yul\":400:405   */\n      dup2\n        /* \"#utility.yul\":389:405   */\n      swap1\n      pop\n        /* \"#utility.yul\":334:411   */\n      swap2\n      swap1\n      pop\n      jump\t// out\n        /* \"#utility.yul\":417:539   */\n    tag_81:\n        /* \"#utility.yul\":490:514   */\n      tag_149\n        /* \"#utility.yul\":508:513   */\n      dup2\n        /* \"#utility.yul\":490:514   */\n      tag_80\n      jump\t// in\n    tag_149:\n        /* \"#utility.yul\":483:488   */\n      dup2\n        /* \"#utility.yul\":480:515   */\n      eq\n        /* \"#utility.yul\":470:533   */\n      tag_150\n      jumpi\n        /* \"#utility.yul\":529:530   */\n      0x00\n        /* \"#utility.yul\":526:527   */\n      dup1\n        /* \"#utility.yul\":519:531   */\n      revert\n        /* \"#utility.yul\":470:533   */\n    tag_150:\n        /* \"#utility.yul\":417:539   */\n      pop\n      jump\t// out\n        /* \"#utility.yul\":545:684   */\n    tag_82:\n        /* \"#utility.yul\":591:596   */\n      0x00\n        /* \"#utility.yul\":629:635   */\n      dup2\n        /* \"#utility.yul\":616:636   */\n      calldataload\n        /* \"#utility.yul\":607:636   */\n      swap1\n      pop\n        /* \"#utility.yul\":645:678   */\n      tag_152\n        /* \"#utility.yul\":672:677   */\n      dup2\n        /* \"#utility.yul\":645:678   */\n      tag_81\n      jump\t// in\n    tag_152:\n        /* \"#utility.yul\":545:684   */\n      swap3\n      swap2\n      pop\n      pop\n      jump\t// out\n        /* \"#utility.yul\":690:807   */\n    tag_83:\n        /* \"#utility.yul\":799:800   */\n      0x00\n        /* \"#utility.yul\":796:797   */\n      dup1\n        /* \"#utility.yul\":789:801   */\n      revert\n        /* \"#utility.yul\":813:930   */\n    tag_84:\n        /* \"#utility.yul\":922:923   */\n      0x00\n        /* \"#utility.yul\":919:920   */\n      dup1\n        /* \"#utility.yul\":912:924   */\n      revert\n        /* \"#utility.yul\":936:1038   */\n    tag_85:\n        /* \"#utility.yul\":977:983   */\n      0x00\n        /* \"#utility.yul\":1028:1030   */\n      0x1f\n        /* \"#utility.yul\":1024:1031   */\n      not\n        /* \"#utility.yul\":1019:1021   */\n      0x1f\n        /* \"#utility.yul\":1012:1017   */\n      dup4\n        /* \"#utility.yul\":1008:1022   */\n      add\n        /* \"#utility.yul\":1004:1032   */\n      and\n        /* \"#utility.yul\":994:1032   */\n      swap1\n      pop\n        /* \"#utility.yul\":936:1038   */\n      swap2\n      swap1\n      pop\n      jump\t// out\n        /* \"#utility.yul\":1044:1224   */\n    tag_86:\n        /* \"#utility.yul\":1092:1169   */\n      0x4e487b7100000000000000000000000000000000000000000000000000000000\n        /* \"#utility.yul\":1089:1090   */\n      0x00\n        /* \"#utility.yul\":1082:1170   */\n      mstore\n        /* \"#utility.yul\":1189:1193   */\n      0x41\n        /* \"#utility.yul\":1186:1187   */\n      0x04\n        /* \"#utility.yul\":1179:1194   */\n      mstore\n        /* \"#utility.yul\":1213:1217   */\n      0x24\n        /* \"#utility.yul\":1210:1211   */\n      0x00\n        /* \"#utility.yul\":1203:1218   */\n      revert\n        /* \"#utility.yul\":1230:1511   */\n    tag_87:\n        /* \"#utility.yul\":1313:1340   */\n      tag_158\n        /* \"#utility.yul\":1335:1339   */\n      dup3\n        /* \"#utility.yul\":1313:1340   */\n      tag_85\n      jump\t// in\n    tag_158:\n        /* \"#utility.yul\":1305:1311   */\n      dup2\n        /* \"#utility.yul\":1301:1341   */\n      add\n        /* \"#utility.yul\":1443:1449   */\n      dup2\n        /* \"#utility.yul\":1431:1441   */\n      dup2\n        /* \"#utility.yul\":1428:1450   */\n      lt\n        /* \"#utility.yul\":1407:1425   */\n      0xffffffffffffffff\n        /* \"#utility.yul\":1395:1405   */\n      dup3\n        /* \"#utility.yul\":1392:1426   */\n      gt\n        /* \"#utility.yul\":1389:1451   */\n      or\n        /* \"#utility.yul\":1386:1474   */\n      iszero\n      tag_159\n      jumpi\n        /* \"#utility.yul\":1454:1472   */\n      tag_160\n      tag_86\n      jump\t// in\n    tag_160:\n        /* \"#utility.yul\":1386:1474   */\n    tag_159:\n        /* \"#utility.yul\":1494:1504   */\n      dup1\n        /* \"#utility.yul\":1490:1492   */\n      0x40\n        /* \"#utility.yul\":1483:1505   */\n      mstore\n        /* \"#utility.yul\":1273:1511   */\n      pop\n        /* \"#utility.yul\":1230:1511   */\n      pop\n      pop\n      jump\t// out\n        /* \"#utility.yul\":1517:1646   */\n    tag_88:\n        /* \"#utility.yul\":1551:1557   */\n      0x00\n        /* \"#utility.yul\":1578:1598   */\n      tag_162\n      tag_77\n      jump\t// in\n    tag_162:\n        /* \"#utility.yul\":1568:1598   */\n      swap1\n      pop\n        /* \"#utility.yul\":1607:1640   */\n      tag_163\n        /* \"#utility.yul\":1635:1639   */\n      dup3\n        /* \"#utility.yul\":1627:1633   */\n      dup3\n        /* \"#utility.yul\":1607:1640   */\n      tag_87\n      jump\t// in\n    tag_163:\n        /* \"#utility.yul\":1517:1646   */\n      swap2\n      swap1\n      pop\n      jump\t// out\n        /* \"#utility.yul\":1652:1960   */\n    tag_89:\n        /* \"#utility.yul\":1714:1718   */\n      0x00\n        /* \"#utility.yul\":1804:1822   */\n      0xffffffffffffffff\n        /* \"#utility.yul\":1796:1802   */\n      dup3\n        /* \"#utility.yul\":1793:1823   */\n      gt\n        /* \"#utility.yul\":1790:1846   */\n      iszero\n      tag_165\n      jumpi\n        /* \"#utility.yul\":1826:1844   */\n      tag_166\n      tag_86\n      jump\t// in\n    tag_166:\n        /* \"#utility.yul\":1790:1846   */\n    tag_165:\n        /* \"#utility.yul\":1864:1893   */\n      tag_167\n        /* \"#utility.yul\":1886:1892   */\n      dup3\n        /* \"#utility.yul\":1864:1893   */\n      tag_85\n      jump\t// in\n    tag_167:\n        /* \"#utility.yul\":1856:1893   */\n      swap1\n      pop\n        /* \"#utility.yul\":1948:1952   */\n      0x20\n        /* \"#utility.yul\":1942:1946   */\n      dup2\n        /* \"#utility.yul\":1938:1953   */\n      add\n        /* \"#utility.yul\":1930:1953   */\n      swap1\n      pop\n        /* \"#utility.yul\":1652:1960   */\n      swap2\n      swap1\n      pop\n      jump\t// out\n        /* \"#utility.yul\":1966:2114   */\n    tag_90:\n        /* \"#utility.yul\":2064:2070   */\n      dup3\n        /* \"#utility.yul\":2059:2062   */\n      dup2\n        /* \"#utility.yul\":2054:2057   */\n      dup4\n        /* \"#utility.yul\":2041:2071   */\n      calldatacopy\n        /* \"#utility.yul\":2105:2106   */\n      0x00\n        /* \"#utility.yul\":2096:2102   */\n      dup4\n        /* \"#utility.yul\":2091:2094   */\n      dup4\n        /* \"#utility.yul\":2087:2103   */\n      add\n        /* \"#utility.yul\":2080:2107   */\n      mstore\n        /* \"#utility.yul\":1966:2114   */\n      pop\n      pop\n      pop\n      jump\t// out\n        /* \"#utility.yul\":2120:2545   */\n    tag_91:\n        /* \"#utility.yul\":2198:2203   */\n      0x00\n        /* \"#utility.yul\":2223:2289   */\n      tag_170\n        /* \"#utility.yul\":2239:2288   */\n      tag_171\n        /* \"#utility.yul\":2281:2287   */\n      dup5\n        /* \"#utility.yul\":2239:2288   */\n      tag_89\n      jump\t// in\n    tag_171:\n        /* \"#utility.yul\":2223:2289   */\n      tag_88\n      jump\t// in\n    tag_170:\n        /* \"#utility.yul\":2214:2289   */\n      swap1\n      pop\n        /* \"#utility.yul\":2312:2318   */\n      dup3\n        /* \"#utility.yul\":2305:2310   */\n      dup2\n        /* \"#utility.yul\":2298:2319   */\n      mstore\n        /* \"#utility.yul\":2350:2354   */\n      0x20\n        /* \"#utility.yul\":2343:2348   */\n      dup2\n        /* \"#utility.yul\":2339:2355   */\n      add\n        /* \"#utility.yul\":2388:2391   */\n      dup5\n        /* \"#utility.yul\":2379:2385   */\n      dup5\n        /* \"#utility.yul\":2374:2377   */\n      dup5\n        /* \"#utility.yul\":2370:2386   */\n      add\n        /* \"#utility.yul\":2367:2392   */\n      gt\n        /* \"#utility.yul\":2364:2476   */\n      iszero\n      tag_172\n      jumpi\n        /* \"#utility.yul\":2395:2474   */\n      tag_173\n      tag_84\n      jump\t// in\n    tag_173:\n        /* \"#utility.yul\":2364:2476   */\n    tag_172:\n        /* \"#utility.yul\":2485:2539   */\n      tag_174\n        /* \"#utility.yul\":2532:2538   */\n      dup5\n        /* \"#utility.yul\":2527:2530   */\n      dup3\n        /* \"#utility.yul\":2522:2525   */\n      dup6\n        /* \"#utility.yul\":2485:2539   */\n      tag_90\n      jump\t// in\n    tag_174:\n        /* \"#utility.yul\":2204:2545   */\n      pop\n        /* \"#utility.yul\":2120:2545   */\n      swap4\n      swap3\n      pop\n      pop\n      pop\n      jump\t// out\n        /* \"#utility.yul\":2565:2905   */\n    tag_92:\n        /* \"#utility.yul\":2621:2626   */\n      0x00\n        /* \"#utility.yul\":2670:2673   */\n      dup3\n        /* \"#utility.yul\":2663:2667   */\n      0x1f\n        /* \"#utility.yul\":2655:2661   */\n      dup4\n        /* \"#utility.yul\":2651:2668   */\n      add\n        /* \"#utility.yul\":2647:2674   */\n      slt\n        /* \"#utility.yul\":2637:2759   */\n      tag_176\n      jumpi\n        /* \"#utility.yul\":2678:2757   */\n      tag_177\n      tag_83\n      jump\t// in\n    tag_177:\n        /* \"#utility.yul\":2637:2759   */\n    tag_176:\n        /* \"#utility.yul\":2795:2801   */\n      dup2\n        /* \"#utility.yul\":2782:2802   */\n      calldataload\n        /* \"#utility.yul\":2820:2899   */\n      tag_178\n        /* \"#utility.yul\":2895:2898   */\n      dup5\n        /* \"#utility.yul\":2887:2893   */\n      dup3\n        /* \"#utility.yul\":2880:2884   */\n      0x20\n        /* \"#utility.yul\":2872:2878   */\n      dup7\n        /* \"#utility.yul\":2868:2885   */\n      add\n        /* \"#utility.yul\":2820:2899   */\n      tag_91\n      jump\t// in\n    tag_178:\n        /* \"#utility.yul\":2811:2899   */\n      swap2\n      pop\n        /* \"#utility.yul\":2627:2905   */\n      pop\n        /* \"#utility.yul\":2565:2905   */\n      swap3\n      swap2\n      pop\n      pop\n      jump\t// out\n        /* \"#utility.yul\":2911:3565   */\n    tag_9:\n        /* \"#utility.yul\":2989:2995   */\n      0x00\n        /* \"#utility.yul\":2997:3003   */\n      dup1\n        /* \"#utility.yul\":3046:3048   */\n      0x40\n        /* \"#utility.yul\":3034:3043   */\n      dup4\n        /* \"#utility.yul\":3025:3032   */\n      dup6\n        /* \"#utility.yul\":3021:3044   */\n      sub\n        /* \"#utility.yul\":3017:3049   */\n      slt\n        /* \"#utility.yul\":3014:3133   */\n      iszero\n      tag_180\n      jumpi\n        /* \"#utility.yul\":3052:3131   */\n      tag_181\n      tag_78\n      jump\t// in\n    tag_181:\n        /* \"#utility.yul\":3014:3133   */\n    tag_180:\n        /* \"#utility.yul\":3172:3173   */\n      0x00\n        /* \"#utility.yul\":3197:3250   */\n      tag_182\n        /* \"#utility.yul\":3242:3249   */\n      dup6\n        /* \"#utility.yul\":3233:3239   */\n      dup3\n        /* \"#utility.yul\":3222:3231   */\n      dup7\n        /* \"#utility.yul\":3218:3240   */\n      add\n        /* \"#utility.yul\":3197:3250   */\n      tag_82\n      jump\t// in\n    tag_182:\n        /* \"#utility.yul\":3187:3250   */\n      swap3\n      pop\n        /* \"#utility.yul\":3143:3260   */\n      pop\n        /* \"#utility.yul\":3327:3329   */\n      0x20\n        /* \"#utility.yul\":3316:3325   */\n      dup4\n        /* \"#utility.yul\":3312:3330   */\n      add\n        /* \"#utility.yul\":3299:3331   */\n      calldataload\n        /* \"#utility.yul\":3358:3376   */\n      0xffffffffffffffff\n        /* \"#utility.yul\":3350:3356   */\n      dup2\n        /* \"#utility.yul\":3347:3377   */\n      gt\n        /* \"#utility.yul\":3344:3461   */\n      iszero\n      tag_183\n      jumpi\n        /* \"#utility.yul\":3380:3459   */\n      tag_184\n      tag_79\n      jump\t// in\n    tag_184:\n        /* \"#utility.yul\":3344:3461   */\n    tag_183:\n        /* \"#utility.yul\":3485:3548   */\n      tag_185\n        /* \"#utility.yul\":3540:3547   */\n      dup6\n        /* \"#utility.yul\":3531:3537   */\n      dup3\n        /* \"#utility.yul\":3520:3529   */\n      dup7\n        /* \"#utility.yul\":3516:3538   */\n      add\n        /* \"#utility.yul\":3485:3548   */\n      tag_92\n      jump\t// in\n    tag_185:\n        /* \"#utility.yul\":3475:3548   */\n      swap2\n      pop\n        /* \"#utility.yul\":3270:3558   */\n      pop\n        /* \"#utility.yul\":2911:3565   */\n      swap3\n      pop\n      swap3\n      swap1\n      pop\n      jump\t// out\n        /* \"#utility.yul\":3571:3900   */\n    tag_13:\n        /* \"#utility.yul\":3630:3636   */\n      0x00\n        /* \"#utility.yul\":3679:3681   */\n      0x20\n        /* \"#utility.yul\":3667:3676   */\n      dup3\n        /* \"#utility.yul\":3658:3665   */\n      dup5\n        /* \"#utility.yul\":3654:3677   */\n      sub\n        /* \"#utility.yul\":3650:3682   */\n      slt\n        /* \"#utility.yul\":3647:3766   */\n      iszero\n      tag_187\n      jumpi\n        /* \"#utility.yul\":3685:3764   */\n      tag_188\n      tag_78\n      jump\t// in\n    tag_188:\n        /* \"#utility.yul\":3647:3766   */\n    tag_187:\n        /* \"#utility.yul\":3805:3806   */\n      0x00\n        /* \"#utility.yul\":3830:3883   */\n      tag_189\n        /* \"#utility.yul\":3875:3882   */\n      dup5\n        /* \"#utility.yul\":3866:3872   */\n      dup3\n        /* \"#utility.yul\":3855:3864   */\n      dup6\n        /* \"#utility.yul\":3851:3873   */\n      add\n        /* \"#utility.yul\":3830:3883   */\n      tag_82\n      jump\t// in\n    tag_189:\n        /* \"#utility.yul\":3820:3883   */\n      swap2\n      pop\n        /* \"#utility.yul\":3776:3893   */\n      pop\n        /* \"#utility.yul\":3571:3900   */\n      swap3\n      swap2\n      pop\n      pop\n      jump\t// out\n        /* \"#utility.yul\":3906:4030   */\n    tag_93:\n        /* \"#utility.yul\":3983:3989   */\n      0x00\n        /* \"#utility.yul\":4017:4022   */\n      dup2\n        /* \"#utility.yul\":4011:4023   */\n      mload\n        /* \"#utility.yul\":4001:4023   */\n      swap1\n      pop\n        /* \"#utility.yul\":3906:4030   */\n      swap2\n      swap1\n      pop\n      jump\t// out\n        /* \"#utility.yul\":4036:4230   */\n    tag_94:\n        /* \"#utility.yul\":4145:4156   */\n      0x00\n        /* \"#utility.yul\":4179:4185   */\n      dup3\n        /* \"#utility.yul\":4174:4177   */\n      dup3\n        /* \"#utility.yul\":4167:4186   */\n      mstore\n        /* \"#utility.yul\":4219:4223   */\n      0x20\n        /* \"#utility.yul\":4214:4217   */\n      dup3\n        /* \"#utility.yul\":4210:4224   */\n      add\n        /* \"#utility.yul\":4195:4224   */\n      swap1\n      pop\n        /* \"#utility.yul\":4036:4230   */\n      swap3\n      swap2\n      pop\n      pop\n      jump\t// out\n        /* \"#utility.yul\":4236:4378   */\n    tag_95:\n        /* \"#utility.yul\":4313:4317   */\n      0x00\n        /* \"#utility.yul\":4336:4339   */\n      dup2\n        /* \"#utility.yul\":4328:4339   */\n      swap1\n      pop\n        /* \"#utility.yul\":4366:4370   */\n      0x20\n        /* \"#utility.yul\":4361:4364   */\n      dup3\n        /* \"#utility.yul\":4357:4371   */\n      add\n        /* \"#utility.yul\":4349:4371   */\n      swap1\n      pop\n        /* \"#utility.yul\":4236:4378   */\n      swap2\n      swap1\n      pop\n      jump\t// out\n        /* \"#utility.yul\":4384:4483   */\n    tag_96:\n        /* \"#utility.yul\":4436:4442   */\n      0x00\n        /* \"#utility.yul\":4470:4475   */\n      dup2\n        /* \"#utility.yul\":4464:4476   */\n      mload\n        /* \"#utility.yul\":4454:4476   */\n      swap1\n      pop\n        /* \"#utility.yul\":4384:4483   */\n      swap2\n      swap1\n      pop\n      jump\t// out\n        /* \"#utility.yul\":4489:4648   */\n    tag_97:\n        /* \"#utility.yul\":4563:4574   */\n      0x00\n        /* \"#utility.yul\":4597:4603   */\n      dup3\n        /* \"#utility.yul\":4592:4595   */\n      dup3\n        /* \"#utility.yul\":4585:4604   */\n      mstore\n        /* \"#utility.yul\":4637:4641   */\n      0x20\n        /* \"#utility.yul\":4632:4635   */\n      dup3\n        /* \"#utility.yul\":4628:4642   */\n      add\n        /* \"#utility.yul\":4613:4642   */\n      swap1\n      pop\n        /* \"#utility.yul\":4489:4648   */\n      swap3\n      swap2\n      pop\n      pop\n      jump\t// out\n        /* \"#utility.yul\":4654:4793   */\n    tag_98:\n        /* \"#utility.yul\":4743:4749   */\n      dup3\n        /* \"#utility.yul\":4738:4741   */\n      dup2\n        /* \"#utility.yul\":4733:4736   */\n      dup4\n        /* \"#utility.yul\":4727:4750   */\n      mcopy\n        /* \"#utility.yul\":4784:4785   */\n      0x00\n        /* \"#utility.yul\":4775:4781   */\n      dup4\n        /* \"#utility.yul\":4770:4773   */\n      dup4\n        /* \"#utility.yul\":4766:4782   */\n      add\n        /* \"#utility.yul\":4759:4786   */\n      mstore\n        /* \"#utility.yul\":4654:4793   */\n      pop\n      pop\n      pop\n      jump\t// out\n        /* \"#utility.yul\":4799:5156   */\n    tag_99:\n        /* \"#utility.yul\":4877:4880   */\n      0x00\n        /* \"#utility.yul\":4905:4944   */\n      tag_197\n        /* \"#utility.yul\":4938:4943   */\n      dup3\n        /* \"#utility.yul\":4905:4944   */\n      tag_96\n      jump\t// in\n    tag_197:\n        /* \"#utility.yul\":4960:5021   */\n      tag_198\n        /* \"#utility.yul\":5014:5020   */\n      dup2\n        /* \"#utility.yul\":5009:5012   */\n      dup6\n        /* \"#utility.yul\":4960:5021   */\n      tag_97\n      jump\t// in\n    tag_198:\n        /* \"#utility.yul\":4953:5021   */\n      swap4\n      pop\n        /* \"#utility.yul\":5030:5095   */\n      tag_199\n        /* \"#utility.yul\":5088:5094   */\n      dup2\n        /* \"#utility.yul\":5083:5086   */\n      dup6\n        /* \"#utility.yul\":5076:5080   */\n      0x20\n        /* \"#utility.yul\":5069:5074   */\n      dup7\n        /* \"#utility.yul\":5065:5081   */\n      add\n        /* \"#utility.yul\":5030:5095   */\n      tag_98\n      jump\t// in\n    tag_199:\n        /* \"#utility.yul\":5120:5149   */\n      tag_200\n        /* \"#utility.yul\":5142:5148   */\n      dup2\n        /* \"#utility.yul\":5120:5149   */\n      tag_85\n      jump\t// in\n    tag_200:\n        /* \"#utility.yul\":5115:5118   */\n      dup5\n        /* \"#utility.yul\":5111:5150   */\n      add\n        /* \"#utility.yul\":5104:5150   */\n      swap2\n      pop\n        /* \"#utility.yul\":4881:5156   */\n      pop\n        /* \"#utility.yul\":4799:5156   */\n      swap3\n      swap2\n      pop\n      pop\n      jump\t// out\n        /* \"#utility.yul\":5162:5358   */\n    tag_100:\n        /* \"#utility.yul\":5251:5261   */\n      0x00\n        /* \"#utility.yul\":5286:5352   */\n      tag_202\n        /* \"#utility.yul\":5348:5351   */\n      dup4\n        /* \"#utility.yul\":5340:5346   */\n      dup4\n        /* \"#utility.yul\":5286:5352   */\n      tag_99\n      jump\t// in\n    tag_202:\n        /* \"#utility.yul\":5272:5352   */\n      swap1\n      pop\n        /* \"#utility.yul\":5162:5358   */\n      swap3\n      swap2\n      pop\n      pop\n      jump\t// out\n        /* \"#utility.yul\":5364:5487   */\n    tag_101:\n        /* \"#utility.yul\":5444:5448   */\n      0x00\n        /* \"#utility.yul\":5476:5480   */\n      0x20\n        /* \"#utility.yul\":5471:5474   */\n      dup3\n        /* \"#utility.yul\":5467:5481   */\n      add\n        /* \"#utility.yul\":5459:5481   */\n      swap1\n      pop\n        /* \"#utility.yul\":5364:5487   */\n      swap2\n      swap1\n      pop\n      jump\t// out\n        /* \"#utility.yul\":5521:6512   */\n    tag_102:\n        /* \"#utility.yul\":5660:5663   */\n      0x00\n        /* \"#utility.yul\":5689:5753   */\n      tag_205\n        /* \"#utility.yul\":5747:5752   */\n      dup3\n        /* \"#utility.yul\":5689:5753   */\n      tag_93\n      jump\t// in\n    tag_205:\n        /* \"#utility.yul\":5769:5865   */\n      tag_206\n        /* \"#utility.yul\":5858:5864   */\n      dup2\n        /* \"#utility.yul\":5853:5856   */\n      dup6\n        /* \"#utility.yul\":5769:5865   */\n      tag_94\n      jump\t// in\n    tag_206:\n        /* \"#utility.yul\":5762:5865   */\n      swap4\n      pop\n        /* \"#utility.yul\":5891:5894   */\n      dup4\n        /* \"#utility.yul\":5936:5940   */\n      0x20\n        /* \"#utility.yul\":5928:5934   */\n      dup3\n        /* \"#utility.yul\":5924:5941   */\n      mul\n        /* \"#utility.yul\":5919:5922   */\n      dup6\n        /* \"#utility.yul\":5915:5942   */\n      add\n        /* \"#utility.yul\":5966:6032   */\n      tag_207\n        /* \"#utility.yul\":6026:6031   */\n      dup6\n        /* \"#utility.yul\":5966:6032   */\n      tag_95\n      jump\t// in\n    tag_207:\n        /* \"#utility.yul\":6055:6062   */\n      dup1\n        /* \"#utility.yul\":6086:6087   */\n      0x00\n        /* \"#utility.yul\":6071:6467   */\n    tag_208:\n        /* \"#utility.yul\":6096:6102   */\n      dup6\n        /* \"#utility.yul\":6093:6094   */\n      dup2\n        /* \"#utility.yul\":6090:6103   */\n      lt\n        /* \"#utility.yul\":6071:6467   */\n      iszero\n      tag_210\n      jumpi\n        /* \"#utility.yul\":6167:6176   */\n      dup5\n        /* \"#utility.yul\":6161:6165   */\n      dup5\n        /* \"#utility.yul\":6157:6177   */\n      sub\n        /* \"#utility.yul\":6152:6155   */\n      dup10\n        /* \"#utility.yul\":6145:6178   */\n      mstore\n        /* \"#utility.yul\":6218:6224   */\n      dup2\n        /* \"#utility.yul\":6212:6225   */\n      mload\n        /* \"#utility.yul\":6246:6330   */\n      tag_211\n        /* \"#utility.yul\":6325:6329   */\n      dup6\n        /* \"#utility.yul\":6310:6323   */\n      dup3\n        /* \"#utility.yul\":6246:6330   */\n      tag_100\n      jump\t// in\n    tag_211:\n        /* \"#utility.yul\":6238:6330   */\n      swap5\n      pop\n        /* \"#utility.yul\":6353:6423   */\n      tag_212\n        /* \"#utility.yul\":6416:6422   */\n      dup4\n        /* \"#utility.yul\":6353:6423   */\n      tag_101\n      jump\t// in\n    tag_212:\n        /* \"#utility.yul\":6343:6423   */\n      swap3\n      pop\n        /* \"#utility.yul\":6452:6456   */\n      0x20\n        /* \"#utility.yul\":6447:6450   */\n      dup11\n        /* \"#utility.yul\":6443:6457   */\n      add\n        /* \"#utility.yul\":6436:6457   */\n      swap10\n      pop\n        /* \"#utility.yul\":6131:6467   */\n      pop\n        /* \"#utility.yul\":6118:6119   */\n      0x01\n        /* \"#utility.yul\":6115:6116   */\n      dup2\n        /* \"#utility.yul\":6111:6120   */\n      add\n        /* \"#utility.yul\":6106:6120   */\n      swap1\n      pop\n        /* \"#utility.yul\":6071:6467   */\n      jump(tag_208)\n    tag_210:\n        /* \"#utility.yul\":6075:6089   */\n      pop\n        /* \"#utility.yul\":6483:6487   */\n      dup3\n        /* \"#utility.yul\":6476:6487   */\n      swap8\n      pop\n        /* \"#utility.yul\":6503:6506   */\n      dup8\n        /* \"#utility.yul\":6496:6506   */\n      swap6\n      pop\n        /* \"#utility.yul\":5665:6512   */\n      pop\n      pop\n      pop\n      pop\n      pop\n        /* \"#utility.yul\":5521:6512   */\n      swap3\n      swap2\n      pop\n      pop\n      jump\t// out\n        /* \"#utility.yul\":6518:6595   */\n    tag_103:\n        /* \"#utility.yul\":6555:6562   */\n      0x00\n        /* \"#utility.yul\":6584:6589   */\n      dup2\n        /* \"#utility.yul\":6573:6589   */\n      swap1\n      pop\n        /* \"#utility.yul\":6518:6595   */\n      swap2\n      swap1\n      pop\n      jump\t// out\n        /* \"#utility.yul\":6601:6719   */\n    tag_104:\n        /* \"#utility.yul\":6688:6712   */\n      tag_215\n        /* \"#utility.yul\":6706:6711   */\n      dup2\n        /* \"#utility.yul\":6688:6712   */\n      tag_103\n      jump\t// in\n    tag_215:\n        /* \"#utility.yul\":6683:6686   */\n      dup3\n        /* \"#utility.yul\":6676:6713   */\n      mstore\n        /* \"#utility.yul\":6601:6719   */\n      pop\n      pop\n      jump\t// out\n        /* \"#utility.yul\":6725:6851   */\n    tag_105:\n        /* \"#utility.yul\":6762:6769   */\n      0x00\n        /* \"#utility.yul\":6802:6844   */\n      0xffffffffffffffffffffffffffffffffffffffff\n        /* \"#utility.yul\":6795:6800   */\n      dup3\n        /* \"#utility.yul\":6791:6845   */\n      and\n        /* \"#utility.yul\":6780:6845   */\n      swap1\n      pop\n        /* \"#utility.yul\":6725:6851   */\n      swap2\n      swap1\n      pop\n      jump\t// out\n        /* \"#utility.yul\":6857:6953   */\n    tag_106:\n        /* \"#utility.yul\":6894:6901   */\n      0x00\n        /* \"#utility.yul\":6923:6947   */\n      tag_218\n        /* \"#utility.yul\":6941:6946   */\n      dup3\n        /* \"#utility.yul\":6923:6947   */\n      tag_105\n      jump\t// in\n    tag_218:\n        /* \"#utility.yul\":6912:6947   */\n      swap1\n      pop\n        /* \"#utility.yul\":6857:6953   */\n      swap2\n      swap1\n      pop\n      jump\t// out\n        /* \"#utility.yul\":6959:7077   */\n    tag_107:\n        /* \"#utility.yul\":7046:7070   */\n      tag_220\n        /* \"#utility.yul\":7064:7069   */\n      dup2\n        /* \"#utility.yul\":7046:7070   */\n      tag_106\n      jump\t// in\n    tag_220:\n        /* \"#utility.yul\":7041:7044   */\n      dup3\n        /* \"#utility.yul\":7034:7071   */\n      mstore\n        /* \"#utility.yul\":6959:7077   */\n      pop\n      pop\n      jump\t// out\n        /* \"#utility.yul\":7083:7938   */\n    tag_16:\n        /* \"#utility.yul\":7358:7362   */\n      0x00\n        /* \"#utility.yul\":7396:7399   */\n      0xa0\n        /* \"#utility.yul\":7385:7394   */\n      dup3\n        /* \"#utility.yul\":7381:7400   */\n      add\n        /* \"#utility.yul\":7373:7400   */\n      swap1\n      pop\n        /* \"#utility.yul\":7446:7455   */\n      dup2\n        /* \"#utility.yul\":7440:7444   */\n      dup2\n        /* \"#utility.yul\":7436:7456   */\n      sub\n        /* \"#utility.yul\":7432:7433   */\n      0x00\n        /* \"#utility.yul\":7421:7430   */\n      dup4\n        /* \"#utility.yul\":7417:7434   */\n      add\n        /* \"#utility.yul\":7410:7457   */\n      mstore\n        /* \"#utility.yul\":7474:7602   */\n      tag_222\n        /* \"#utility.yul\":7597:7601   */\n      dup2\n        /* \"#utility.yul\":7588:7594   */\n      dup9\n        /* \"#utility.yul\":7474:7602   */\n      tag_102\n      jump\t// in\n    tag_222:\n        /* \"#utility.yul\":7466:7602   */\n      swap1\n      pop\n        /* \"#utility.yul\":7612:7684   */\n      tag_223\n        /* \"#utility.yul\":7680:7682   */\n      0x20\n        /* \"#utility.yul\":7669:7678   */\n      dup4\n        /* \"#utility.yul\":7665:7683   */\n      add\n        /* \"#utility.yul\":7656:7662   */\n      dup8\n        /* \"#utility.yul\":7612:7684   */\n      tag_104\n      jump\t// in\n    tag_223:\n        /* \"#utility.yul\":7694:7766   */\n      tag_224\n        /* \"#utility.yul\":7762:7764   */\n      0x40\n        /* \"#utility.yul\":7751:7760   */\n      dup4\n        /* \"#utility.yul\":7747:7765   */\n      add\n        /* \"#utility.yul\":7738:7744   */\n      dup7\n        /* \"#utility.yul\":7694:7766   */\n      tag_104\n      jump\t// in\n    tag_224:\n        /* \"#utility.yul\":7776:7848   */\n      tag_225\n        /* \"#utility.yul\":7844:7846   */\n      0x60\n        /* \"#utility.yul\":7833:7842   */\n      dup4\n        /* \"#utility.yul\":7829:7847   */\n      add\n        /* \"#utility.yul\":7820:7826   */\n      dup6\n        /* \"#utility.yul\":7776:7848   */\n      tag_107\n      jump\t// in\n    tag_225:\n        /* \"#utility.yul\":7858:7931   */\n      tag_226\n        /* \"#utility.yul\":7926:7929   */\n      0x80\n        /* \"#utility.yul\":7915:7924   */\n      dup4\n        /* \"#utility.yul\":7911:7930   */\n      add\n        /* \"#utility.yul\":7902:7908   */\n      dup5\n        /* \"#utility.yul\":7858:7931   */\n      tag_104\n      jump\t// in\n    tag_226:\n        /* \"#utility.yul\":7083:7938   */\n      swap7\n      swap6\n      pop\n      pop\n      pop\n      pop\n      pop\n      pop\n      jump\t// out\n        /* \"#utility.yul\":7944:8034   */\n    tag_108:\n        /* \"#utility.yul\":7978:7985   */\n      0x00\n        /* \"#utility.yul\":8021:8026   */\n      dup2\n        /* \"#utility.yul\":8014:8027   */\n      iszero\n        /* \"#utility.yul\":8007:8028   */\n      iszero\n        /* \"#utility.yul\":7996:8028   */\n      swap1\n      pop\n        /* \"#utility.yul\":7944:8034   */\n      swap2\n      swap1\n      pop\n      jump\t// out\n        /* \"#utility.yul\":8040:8149   */\n    tag_109:\n        /* \"#utility.yul\":8121:8142   */\n      tag_229\n        /* \"#utility.yul\":8136:8141   */\n      dup2\n        /* \"#utility.yul\":8121:8142   */\n      tag_108\n      jump\t// in\n    tag_229:\n        /* \"#utility.yul\":8116:8119   */\n      dup3\n        /* \"#utility.yul\":8109:8143   */\n      mstore\n        /* \"#utility.yul\":8040:8149   */\n      pop\n      pop\n      jump\t// out\n        /* \"#utility.yul\":8155:9017   */\n    tag_24:\n        /* \"#utility.yul\":8404:8408   */\n      0x00\n        /* \"#utility.yul\":8442:8445   */\n      0xe0\n        /* \"#utility.yul\":8431:8440   */\n      dup3\n        /* \"#utility.yul\":8427:8446   */\n      add\n        /* \"#utility.yul\":8419:8446   */\n      swap1\n      pop\n        /* \"#utility.yul\":8456:8527   */\n      tag_231\n        /* \"#utility.yul\":8524:8525   */\n      0x00\n        /* \"#utility.yul\":8513:8522   */\n      dup4\n        /* \"#utility.yul\":8509:8526   */\n      add\n        /* \"#utility.yul\":8500:8506   */\n      dup11\n        /* \"#utility.yul\":8456:8527   */\n      tag_104\n      jump\t// in\n    tag_231:\n        /* \"#utility.yul\":8537:8609   */\n      tag_232\n        /* \"#utility.yul\":8605:8607   */\n      0x20\n        /* \"#utility.yul\":8594:8603   */\n      dup4\n        /* \"#utility.yul\":8590:8608   */\n      add\n        /* \"#utility.yul\":8581:8587   */\n      dup10\n        /* \"#utility.yul\":8537:8609   */\n      tag_104\n      jump\t// in\n    tag_232:\n        /* \"#utility.yul\":8619:8691   */\n      tag_233\n        /* \"#utility.yul\":8687:8689   */\n      0x40\n        /* \"#utility.yul\":8676:8685   */\n      dup4\n        /* \"#utility.yul\":8672:8690   */\n      add\n        /* \"#utility.yul\":8663:8669   */\n      dup9\n        /* \"#utility.yul\":8619:8691   */\n      tag_107\n      jump\t// in\n    tag_233:\n        /* \"#utility.yul\":8701:8773   */\n      tag_234\n        /* \"#utility.yul\":8769:8771   */\n      0x60\n        /* \"#utility.yul\":8758:8767   */\n      dup4\n        /* \"#utility.yul\":8754:8772   */\n      add\n        /* \"#utility.yul\":8745:8751   */\n      dup8\n        /* \"#utility.yul\":8701:8773   */\n      tag_104\n      jump\t// in\n    tag_234:\n        /* \"#utility.yul\":8783:8856   */\n      tag_235\n        /* \"#utility.yul\":8851:8854   */\n      0x80\n        /* \"#utility.yul\":8840:8849   */\n      dup4\n        /* \"#utility.yul\":8836:8855   */\n      add\n        /* \"#utility.yul\":8827:8833   */\n      dup7\n        /* \"#utility.yul\":8783:8856   */\n      tag_107\n      jump\t// in\n    tag_235:\n        /* \"#utility.yul\":8866:8933   */\n      tag_236\n        /* \"#utility.yul\":8928:8931   */\n      0xa0\n        /* \"#utility.yul\":8917:8926   */\n      dup4\n        /* \"#utility.yul\":8913:8932   */\n      add\n        /* \"#utility.yul\":8904:8910   */\n      dup6\n        /* \"#utility.yul\":8866:8933   */\n      tag_109\n      jump\t// in\n    tag_236:\n        /* \"#utility.yul\":8943:9010   */\n      tag_237\n        /* \"#utility.yul\":9005:9008   */\n      0xc0\n        /* \"#utility.yul\":8994:9003   */\n      dup4\n        /* \"#utility.yul\":8990:9009   */\n      add\n        /* \"#utility.yul\":8981:8987   */\n      dup5\n        /* \"#utility.yul\":8943:9010   */\n      tag_109\n      jump\t// in\n    tag_237:\n        /* \"#utility.yul\":8155:9017   */\n      swap9\n      swap8\n      pop\n      pop\n      pop\n      pop\n      pop\n      pop\n      pop\n      pop\n      jump\t// out\n        /* \"#utility.yul\":9023:9192   */\n    tag_110:\n        /* \"#utility.yul\":9107:9118   */\n      0x00\n        /* \"#utility.yul\":9141:9147   */\n      dup3\n        /* \"#utility.yul\":9136:9139   */\n      dup3\n        /* \"#utility.yul\":9129:9148   */\n      mstore\n        /* \"#utility.yul\":9181:9185   */\n      0x20\n        /* \"#utility.yul\":9176:9179   */\n      dup3\n        /* \"#utility.yul\":9172:9186   */\n      add\n        /* \"#utility.yul\":9157:9186   */\n      swap1\n      pop\n        /* \"#utility.yul\":9023:9192   */\n      swap3\n      swap2\n      pop\n      pop\n      jump\t// out\n        /* \"#utility.yul\":9198:9360   */\n    tag_111:\n        /* \"#utility.yul\":9338:9352   */\n      0x5152206e6f7420666f756e640000000000000000000000000000000000000000\n        /* \"#utility.yul\":9334:9335   */\n      0x00\n        /* \"#utility.yul\":9326:9332   */\n      dup3\n        /* \"#utility.yul\":9322:9336   */\n      add\n        /* \"#utility.yul\":9315:9353   */\n      mstore\n        /* \"#utility.yul\":9198:9360   */\n      pop\n      jump\t// out\n        /* \"#utility.yul\":9366:9732   */\n    tag_112:\n        /* \"#utility.yul\":9508:9511   */\n      0x00\n        /* \"#utility.yul\":9529:9596   */\n      tag_241\n        /* \"#utility.yul\":9593:9595   */\n      0x0c\n        /* \"#utility.yul\":9588:9591   */\n      dup4\n        /* \"#utility.yul\":9529:9596   */\n      tag_110\n      jump\t// in\n    tag_241:\n        /* \"#utility.yul\":9522:9596   */\n      swap2\n      pop\n        /* \"#utility.yul\":9605:9698   */\n      tag_242\n        /* \"#utility.yul\":9694:9697   */\n      dup3\n        /* \"#utility.yul\":9605:9698   */\n      tag_111\n      jump\t// in\n    tag_242:\n        /* \"#utility.yul\":9723:9725   */\n      0x20\n        /* \"#utility.yul\":9718:9721   */\n      dup3\n        /* \"#utility.yul\":9714:9726   */\n      add\n        /* \"#utility.yul\":9707:9726   */\n      swap1\n      pop\n        /* \"#utility.yul\":9366:9732   */\n      swap2\n      swap1\n      pop\n      jump\t// out\n        /* \"#utility.yul\":9738:10157   */\n    tag_28:\n        /* \"#utility.yul\":9904:9908   */\n      0x00\n        /* \"#utility.yul\":9942:9944   */\n      0x20\n        /* \"#utility.yul\":9931:9940   */\n      dup3\n        /* \"#utility.yul\":9927:9945   */\n      add\n        /* \"#utility.yul\":9919:9945   */\n      swap1\n      pop\n        /* \"#utility.yul\":9991:10000   */\n      dup2\n        /* \"#utility.yul\":9985:9989   */\n      dup2\n        /* \"#utility.yul\":9981:10001   */\n      sub\n        /* \"#utility.yul\":9977:9978   */\n      0x00\n        /* \"#utility.yul\":9966:9975   */\n      dup4\n        /* \"#utility.yul\":9962:9979   */\n      add\n        /* \"#utility.yul\":9955:10002   */\n      mstore\n        /* \"#utility.yul\":10019:10150   */\n      tag_244\n        /* \"#utility.yul\":10145:10149   */\n      dup2\n        /* \"#utility.yul\":10019:10150   */\n      tag_112\n      jump\t// in\n    tag_244:\n        /* \"#utility.yul\":10011:10150   */\n      swap1\n      pop\n        /* \"#utility.yul\":9738:10157   */\n      swap2\n      swap1\n      pop\n      jump\t// out\n        /* \"#utility.yul\":10163:10461   */\n    tag_113:\n        /* \"#utility.yul\":10303:10337   */\n      0x51522069732063757272656e746c7920696e20656e7472792070686173652c20\n        /* \"#utility.yul\":10299:10300   */\n      0x00\n        /* \"#utility.yul\":10291:10297   */\n      dup3\n        /* \"#utility.yul\":10287:10301   */\n      add\n        /* \"#utility.yul\":10280:10338   */\n      mstore\n        /* \"#utility.yul\":10372:10406   */\n      0x706c65617365207761697420666f72207468652063757272656e742073656c6c\n        /* \"#utility.yul\":10367:10369   */\n      0x20\n        /* \"#utility.yul\":10359:10365   */\n      dup3\n        /* \"#utility.yul\":10355:10370   */\n      add\n        /* \"#utility.yul\":10348:10407   */\n      mstore\n        /* \"#utility.yul\":10441:10453   */\n      0x657220746f206578697400000000000000000000000000000000000000000000\n        /* \"#utility.yul\":10436:10438   */\n      0x40\n        /* \"#utility.yul\":10428:10434   */\n      dup3\n        /* \"#utility.yul\":10424:10439   */\n      add\n        /* \"#utility.yul\":10417:10454   */\n      mstore\n        /* \"#utility.yul\":10163:10461   */\n      pop\n      jump\t// out\n        /* \"#utility.yul\":10467:10833   */\n    tag_114:\n        /* \"#utility.yul\":10609:10612   */\n      0x00\n        /* \"#utility.yul\":10630:10697   */\n      tag_247\n        /* \"#utility.yul\":10694:10696   */\n      0x4a\n        /* \"#utility.yul\":10689:10692   */\n      dup4\n        /* \"#utility.yul\":10630:10697   */\n      tag_110\n      jump\t// in\n    tag_247:\n        /* \"#utility.yul\":10623:10697   */\n      swap2\n      pop\n        /* \"#utility.yul\":10706:10799   */\n      tag_248\n        /* \"#utility.yul\":10795:10798   */\n      dup3\n        /* \"#utility.yul\":10706:10799   */\n      tag_113\n      jump\t// in\n    tag_248:\n        /* \"#utility.yul\":10824:10826   */\n      0x60\n        /* \"#utility.yul\":10819:10822   */\n      dup3\n        /* \"#utility.yul\":10815:10827   */\n      add\n        /* \"#utility.yul\":10808:10827   */\n      swap1\n      pop\n        /* \"#utility.yul\":10467:10833   */\n      swap2\n      swap1\n      pop\n      jump\t// out\n        /* \"#utility.yul\":10839:11258   */\n    tag_31:\n        /* \"#utility.yul\":11005:11009   */\n      0x00\n        /* \"#utility.yul\":11043:11045   */\n      0x20\n        /* \"#utility.yul\":11032:11041   */\n      dup3\n        /* \"#utility.yul\":11028:11046   */\n      add\n        /* \"#utility.yul\":11020:11046   */\n      swap1\n      pop\n        /* \"#utility.yul\":11092:11101   */\n      dup2\n        /* \"#utility.yul\":11086:11090   */\n      dup2\n        /* \"#utility.yul\":11082:11102   */\n      sub\n        /* \"#utility.yul\":11078:11079   */\n      0x00\n        /* \"#utility.yul\":11067:11076   */\n      dup4\n        /* \"#utility.yul\":11063:11080   */\n      add\n        /* \"#utility.yul\":11056:11103   */\n      mstore\n        /* \"#utility.yul\":11120:11251   */\n      tag_250\n        /* \"#utility.yul\":11246:11250   */\n      dup2\n        /* \"#utility.yul\":11120:11251   */\n      tag_114\n      jump\t// in\n    tag_250:\n        /* \"#utility.yul\":11112:11251   */\n      swap1\n      pop\n        /* \"#utility.yul\":10839:11258   */\n      swap2\n      swap1\n      pop\n      jump\t// out\n        /* \"#utility.yul\":11264:11444   */\n    tag_115:\n        /* \"#utility.yul\":11312:11389   */\n      0x4e487b7100000000000000000000000000000000000000000000000000000000\n        /* \"#utility.yul\":11309:11310   */\n      0x00\n        /* \"#utility.yul\":11302:11390   */\n      mstore\n        /* \"#utility.yul\":11409:11413   */\n      0x22\n        /* \"#utility.yul\":11406:11407   */\n      0x04\n        /* \"#utility.yul\":11399:11414   */\n      mstore\n        /* \"#utility.yul\":11433:11437   */\n      0x24\n        /* \"#utility.yul\":11430:11431   */\n      0x00\n        /* \"#utility.yul\":11423:11438   */\n      revert\n        /* \"#utility.yul\":11450:11770   */\n    tag_66:\n        /* \"#utility.yul\":11494:11500   */\n      0x00\n        /* \"#utility.yul\":11531:11532   */\n      0x02\n        /* \"#utility.yul\":11525:11529   */\n      dup3\n        /* \"#utility.yul\":11521:11533   */\n      div\n        /* \"#utility.yul\":11511:11533   */\n      swap1\n      pop\n        /* \"#utility.yul\":11578:11579   */\n      0x01\n        /* \"#utility.yul\":11572:11576   */\n      dup3\n        /* \"#utility.yul\":11568:11580   */\n      and\n        /* \"#utility.yul\":11599:11617   */\n      dup1\n        /* \"#utility.yul\":11589:11670   */\n      tag_253\n      jumpi\n        /* \"#utility.yul\":11655:11659   */\n      0x7f\n        /* \"#utility.yul\":11647:11653   */\n      dup3\n        /* \"#utility.yul\":11643:11660   */\n      and\n        /* \"#utility.yul\":11633:11660   */\n      swap2\n      pop\n        /* \"#utility.yul\":11589:11670   */\n    tag_253:\n        /* \"#utility.yul\":11717:11719   */\n      0x20\n        /* \"#utility.yul\":11709:11715   */\n      dup3\n        /* \"#utility.yul\":11706:11720   */\n      lt\n        /* \"#utility.yul\":11686:11704   */\n      dup2\n        /* \"#utility.yul\":11683:11721   */\n      sub\n        /* \"#utility.yul\":11680:11764   */\n      tag_254\n      jumpi\n        /* \"#utility.yul\":11736:11754   */\n      tag_255\n      tag_115\n      jump\t// in\n    tag_255:\n        /* \"#utility.yul\":11680:11764   */\n    tag_254:\n        /* \"#utility.yul\":11501:11770   */\n      pop\n        /* \"#utility.yul\":11450:11770   */\n      swap2\n      swap1\n      pop\n      jump\t// out\n        /* \"#utility.yul\":11776:11917   */\n    tag_116:\n        /* \"#utility.yul\":11825:11829   */\n      0x00\n        /* \"#utility.yul\":11848:11851   */\n      dup2\n        /* \"#utility.yul\":11840:11851   */\n      swap1\n      pop\n        /* \"#utility.yul\":11871:11874   */\n      dup2\n        /* \"#utility.yul\":11868:11869   */\n      0x00\n        /* \"#utility.yul\":11861:11875   */\n      mstore\n        /* \"#utility.yul\":11905:11909   */\n      0x20\n        /* \"#utility.yul\":11902:11903   */\n      0x00\n        /* \"#utility.yul\":11892:11910   */\n      keccak256\n        /* \"#utility.yul\":11884:11910   */\n      swap1\n      pop\n        /* \"#utility.yul\":11776:11917   */\n      swap2\n      swap1\n      pop\n      jump\t// out\n        /* \"#utility.yul\":11923:12016   */\n    tag_117:\n        /* \"#utility.yul\":11960:11966   */\n      0x00\n        /* \"#utility.yul\":12007:12009   */\n      0x20\n        /* \"#utility.yul\":12002:12004   */\n      0x1f\n        /* \"#utility.yul\":11995:12000   */\n      dup4\n        /* \"#utility.yul\":11991:12005   */\n      add\n        /* \"#utility.yul\":11987:12010   */\n      div\n        /* \"#utility.yul\":11977:12010   */\n      swap1\n      pop\n        /* \"#utility.yul\":11923:12016   */\n      swap2\n      swap1\n      pop\n      jump\t// out\n        /* \"#utility.yul\":12022:12129   */\n    tag_118:\n        /* \"#utility.yul\":12066:12074   */\n      0x00\n        /* \"#utility.yul\":12116:12121   */\n      dup3\n        /* \"#utility.yul\":12110:12114   */\n      dup3\n        /* \"#utility.yul\":12106:12122   */\n      shl\n        /* \"#utility.yul\":12085:12122   */\n      swap1\n      pop\n        /* \"#utility.yul\":12022:12129   */\n      swap3\n      swap2\n      pop\n      pop\n      jump\t// out\n        /* \"#utility.yul\":12135:12528   */\n    tag_119:\n        /* \"#utility.yul\":12204:12210   */\n      0x00\n        /* \"#utility.yul\":12254:12255   */\n      0x08\n        /* \"#utility.yul\":12242:12252   */\n      dup4\n        /* \"#utility.yul\":12238:12256   */\n      mul\n        /* \"#utility.yul\":12277:12374   */\n      tag_260\n        /* \"#utility.yul\":12307:12373   */\n      0xffffffffffffffffffffffffffffffffffffffffffffffffffffffffffffffff\n        /* \"#utility.yul\":12296:12305   */\n      dup3\n        /* \"#utility.yul\":12277:12374   */\n      tag_118\n      jump\t// in\n    tag_260:\n        /* \"#utility.yul\":12395:12434   */\n      tag_261\n        /* \"#utility.yul\":12425:12433   */\n      dup7\n        /* \"#utility.yul\":12414:12423   */\n      dup4\n        /* \"#utility.yul\":12395:12434   */\n      tag_118\n      jump\t// in\n    tag_261:\n        /* \"#utility.yul\":12383:12434   */\n      swap6\n      pop\n        /* \"#utility.yul\":12467:12471   */\n      dup1\n        /* \"#utility.yul\":12463:12472   */\n      not\n        /* \"#utility.yul\":12456:12461   */\n      dup5\n        /* \"#utility.yul\":12452:12473   */\n      and\n        /* \"#utility.yul\":12443:12473   */\n      swap4\n      pop\n        /* \"#utility.yul\":12516:12520   */\n      dup1\n        /* \"#utility.yul\":12506:12514   */\n      dup7\n        /* \"#utility.yul\":12502:12521   */\n      and\n        /* \"#utility.yul\":12495:12500   */\n      dup5\n        /* \"#utility.yul\":12492:12522   */\n      or\n        /* \"#utility.yul\":12482:12522   */\n      swap3\n      pop\n        /* \"#utility.yul\":12211:12528   */\n      pop\n      pop\n        /* \"#utility.yul\":12135:12528   */\n      swap4\n      swap3\n      pop\n      pop\n      pop\n      jump\t// out\n        /* \"#utility.yul\":12534:12594   */\n    tag_120:\n        /* \"#utility.yul\":12562:12565   */\n      0x00\n        /* \"#utility.yul\":12583:12588   */\n      dup2\n        /* \"#utility.yul\":12576:12588   */\n      swap1\n      pop\n        /* \"#utility.yul\":12534:12594   */\n      swap2\n      swap1\n      pop\n      jump\t// out\n        /* \"#utility.yul\":12600:12742   */\n    tag_121:\n        /* \"#utility.yul\":12650:12659   */\n      0x00\n        /* \"#utility.yul\":12683:12736   */\n      tag_264\n        /* \"#utility.yul\":12701:12735   */\n      tag_265\n        /* \"#utility.yul\":12710:12734   */\n      tag_266\n        /* \"#utility.yul\":12728:12733   */\n      dup5\n        /* \"#utility.yul\":12710:12734   */\n      tag_103\n      jump\t// in\n    tag_266:\n        /* \"#utility.yul\":12701:12735   */\n      tag_120\n      jump\t// in\n    tag_265:\n        /* \"#utility.yul\":12683:12736   */\n      tag_103\n      jump\t// in\n    tag_264:\n        /* \"#utility.yul\":12670:12736   */\n      swap1\n      pop\n        /* \"#utility.yul\":12600:12742   */\n      swap2\n      swap1\n      pop\n      jump\t// out\n        /* \"#utility.yul\":12748:12823   */\n    tag_122:\n        /* \"#utility.yul\":12791:12794   */\n      0x00\n        /* \"#utility.yul\":12812:12817   */\n      dup2\n        /* \"#utility.yul\":12805:12817   */\n      swap1\n      pop\n        /* \"#utility.yul\":12748:12823   */\n      swap2\n      swap1\n      pop\n      jump\t// out\n        /* \"#utility.yul\":12829:13098   */\n    tag_123:\n        /* \"#utility.yul\":12939:12978   */\n      tag_269\n        /* \"#utility.yul\":12970:12977   */\n      dup4\n        /* \"#utility.yul\":12939:12978   */\n      tag_121\n      jump\t// in\n    tag_269:\n        /* \"#utility.yul\":13000:13091   */\n      tag_270\n        /* \"#utility.yul\":13049:13090   */\n      tag_271\n        /* \"#utility.yul\":13073:13089   */\n      dup3\n        /* \"#utility.yul\":13049:13090   */\n      tag_122\n      jump\t// in\n    tag_271:\n        /* \"#utility.yul\":13041:13047   */\n      dup5\n        /* \"#utility.yul\":13034:13038   */\n      dup5\n        /* \"#utility.yul\":13028:13039   */\n      sload\n        /* \"#utility.yul\":13000:13091   */\n      tag_119\n      jump\t// in\n    tag_270:\n        /* \"#utility.yul\":12994:12998   */\n      dup3\n        /* \"#utility.yul\":12987:13092   */\n      sstore\n        /* \"#utility.yul\":12905:13098   */\n      pop\n        /* \"#utility.yul\":12829:13098   */\n      pop\n      pop\n      pop\n      jump\t// out\n        /* \"#utility.yul\":13104:13177   */\n    tag_124:\n        /* \"#utility.yul\":13149:13152   */\n      0x00\n        /* \"#utility.yul\":13104:13177   */\n      swap1\n      jump\t// out\n        /* \"#utility.yul\":13183:13372   */\n    tag_125:\n        /* \"#utility.yul\":13260:13292   */\n      tag_274\n      tag_124\n      jump\t// in\n    tag_274:\n        /* \"#utility.yul\":13301:13366   */\n      tag_275\n        /* \"#utility.yul\":13359:13365   */\n      dup2\n        /* \"#utility.yul\":13351:13357   */\n      dup5\n        /* \"#utility.yul\":13345:13349   */\n      dup5\n        /* \"#utility.yul\":13301:13366   */\n      tag_123\n      jump\t// in\n    tag_275:\n        /* \"#utility.yul\":13236:13372   */\n      pop\n        /* \"#utility.yul\":13183:13372   */\n      pop\n      pop\n      jump\t// out\n        /* \"#utility.yul\":13378:13564   */\n    tag_126:\n        /* \"#utility.yul\":13438:13558   */\n    tag_277:\n        /* \"#utility.yul\":13455:13458   */\n      dup2\n        /* \"#utility.yul\":13448:13453   */\n      dup2\n        /* \"#utility.yul\":13445:13459   */\n      lt\n        /* \"#utility.yul\":13438:13558   */\n      iszero\n      tag_279\n      jumpi\n        /* \"#utility.yul\":13509:13548   */\n      tag_280\n        /* \"#utility.yul\":13546:13547   */\n      0x00\n        /* \"#utility.yul\":13539:13544   */\n      dup3\n        /* \"#utility.yul\":13509:13548   */\n      tag_125\n      jump\t// in\n    tag_280:\n        /* \"#utility.yul\":13482:13483   */\n      0x01\n        /* \"#utility.yul\":13475:13480   */\n      dup2\n        /* \"#utility.yul\":13471:13484   */\n      add\n        /* \"#utility.yul\":13462:13484   */\n      swap1\n      pop\n        /* \"#utility.yul\":13438:13558   */\n      jump(tag_277)\n    tag_279:\n        /* \"#utility.yul\":13378:13564   */\n      pop\n      pop\n      jump\t// out\n        /* \"#utility.yul\":13570:14113   */\n    tag_127:\n        /* \"#utility.yul\":13671:13673   */\n      0x1f\n        /* \"#utility.yul\":13666:13669   */\n      dup3\n        /* \"#utility.yul\":13663:13674   */\n      gt\n        /* \"#utility.yul\":13660:14106   */\n      iszero\n      tag_282\n      jumpi\n        /* \"#utility.yul\":13705:13743   */\n      tag_283\n        /* \"#utility.yul\":13737:13742   */\n      dup2\n        /* \"#utility.yul\":13705:13743   */\n      tag_116\n      jump\t// in\n    tag_283:\n        /* \"#utility.yul\":13789:13818   */\n      tag_284\n        /* \"#utility.yul\":13807:13817   */\n      dup5\n        /* \"#utility.yul\":13789:13818   */\n      tag_117\n      jump\t// in\n    tag_284:\n        /* \"#utility.yul\":13779:13787   */\n      dup2\n        /* \"#utility.yul\":13775:13819   */\n      add\n        /* \"#utility.yul\":13972:13974   */\n      0x20\n        /* \"#utility.yul\":13960:13970   */\n      dup6\n        /* \"#utility.yul\":13957:13975   */\n      lt\n        /* \"#utility.yul\":13954:14003   */\n      iszero\n      tag_285\n      jumpi\n        /* \"#utility.yul\":13993:14001   */\n      dup2\n        /* \"#utility.yul\":13978:14001   */\n      swap1\n      pop\n        /* \"#utility.yul\":13954:14003   */\n    tag_285:\n        /* \"#utility.yul\":14016:14096   */\n      tag_286\n        /* \"#utility.yul\":14072:14094   */\n      tag_287\n        /* \"#utility.yul\":14090:14093   */\n      dup6\n        /* \"#utility.yul\":14072:14094   */\n      tag_117\n      jump\t// in\n    tag_287:\n        /* \"#utility.yul\":14062:14070   */\n      dup4\n        /* \"#utility.yul\":14058:14095   */\n      add\n        /* \"#utility.yul\":14045:14056   */\n      dup3\n        /* \"#utility.yul\":14016:14096   */\n      tag_126\n      jump\t// in\n    tag_286:\n        /* \"#utility.yul\":13675:14106   */\n      pop\n      pop\n        /* \"#utility.yul\":13660:14106   */\n    tag_282:\n        /* \"#utility.yul\":13570:14113   */\n      pop\n      pop\n      pop\n      jump\t// out\n        /* \"#utility.yul\":14119:14236   */\n    tag_128:\n        /* \"#utility.yul\":14173:14181   */\n      0x00\n        /* \"#utility.yul\":14223:14228   */\n      dup3\n        /* \"#utility.yul\":14217:14221   */\n      dup3\n        /* \"#utility.yul\":14213:14229   */\n      shr\n        /* \"#utility.yul\":14192:14229   */\n      swap1\n      pop\n        /* \"#utility.yul\":14119:14236   */\n      swap3\n      swap2\n      pop\n      pop\n      jump\t// out\n        /* \"#utility.yul\":14242:14411   */\n    tag_129:\n        /* \"#utility.yul\":14286:14292   */\n      0x00\n        /* \"#utility.yul\":14319:14370   */\n      tag_290\n        /* \"#utility.yul\":14367:14368   */\n      0x00\n        /* \"#utility.yul\":14363:14369   */\n      not\n        /* \"#utility.yul\":14355:14360   */\n      dup5\n        /* \"#utility.yul\":14352:14353   */\n      0x08\n        /* \"#utility.yul\":14348:14361   */\n      mul\n        /* \"#utility.yul\":14319:14370   */\n      tag_128\n      jump\t// in\n    tag_290:\n        /* \"#utility.yul\":14315:14371   */\n      not\n        /* \"#utility.yul\":14400:14404   */\n      dup1\n        /* \"#utility.yul\":14394:14398   */\n      dup4\n        /* \"#utility.yul\":14390:14405   */\n      and\n        /* \"#utility.yul\":14380:14405   */\n      swap2\n      pop\n        /* \"#utility.yul\":14293:14411   */\n      pop\n        /* \"#utility.yul\":14242:14411   */\n      swap3\n      swap2\n      pop\n      pop\n      jump\t// out\n        /* \"#utility.yul\":14416:14711   */\n    tag_130:\n        /* \"#utility.yul\":14492:14496   */\n      0x00\n        /* \"#utility.yul\":14638:14667   */\n      tag_292\n        /* \"#utility.yul\":14663:14666   */\n      dup4\n        /* \"#utility.yul\":14657:14661   */\n      dup4\n        /* \"#utility.yul\":14638:14667   */\n      tag_129\n      jump\t// in\n    tag_292:\n        /* \"#utility.yul\":14630:14667   */\n      swap2\n      pop\n        /* \"#utility.yul\":14700:14703   */\n      dup3\n        /* \"#utility.yul\":14697:14698   */\n      0x02\n        /* \"#utility.yul\":14693:14704   */\n      mul\n        /* \"#utility.yul\":14687:14691   */\n      dup3\n        /* \"#utility.yul\":14684:14705   */\n      or\n        /* \"#utility.yul\":14676:14705   */\n      swap1\n      pop\n        /* \"#utility.yul\":14416:14711   */\n      swap3\n      swap2\n      pop\n      pop\n      jump\t// out\n        /* \"#utility.yul\":14716:16111   */\n    tag_36:\n        /* \"#utility.yul\":14833:14870   */\n      tag_294\n        /* \"#utility.yul\":14866:14869   */\n      dup3\n        /* \"#utility.yul\":14833:14870   */\n      tag_96\n      jump\t// in\n    tag_294:\n        /* \"#utility.yul\":14935:14953   */\n      0xffffffffffffffff\n        /* \"#utility.yul\":14927:14933   */\n      dup2\n        /* \"#utility.yul\":14924:14954   */\n      gt\n        /* \"#utility.yul\":14921:14977   */\n      iszero\n      tag_295\n      jumpi\n        /* \"#utility.yul\":14957:14975   */\n      tag_296\n      tag_86\n      jump\t// in\n    tag_296:\n        /* \"#utility.yul\":14921:14977   */\n    tag_295:\n        /* \"#utility.yul\":15001:15039   */\n      tag_297\n        /* \"#utility.yul\":15033:15037   */\n      dup3\n        /* \"#utility.yul\":15027:15038   */\n      sload\n        /* \"#utility.yul\":15001:15039   */\n      tag_66\n      jump\t// in\n    tag_297:\n        /* \"#utility.yul\":15086:15153   */\n      tag_298\n        /* \"#utility.yul\":15146:15152   */\n      dup3\n        /* \"#utility.yul\":15138:15144   */\n      dup3\n        /* \"#utility.yul\":15132:15136   */\n      dup6\n        /* \"#utility.yul\":15086:15153   */\n      tag_127\n      jump\t// in\n    tag_298:\n        /* \"#utility.yul\":15180:15181   */\n      0x00\n        /* \"#utility.yul\":15204:15208   */\n      0x20\n        /* \"#utility.yul\":15191:15208   */\n      swap1\n      pop\n        /* \"#utility.yul\":15236:15238   */\n      0x1f\n        /* \"#utility.yul\":15228:15234   */\n      dup4\n        /* \"#utility.yul\":15225:15239   */\n      gt\n        /* \"#utility.yul\":15253:15254   */\n      0x01\n        /* \"#utility.yul\":15248:15866   */\n      dup2\n      eq\n      tag_300\n      jumpi\n        /* \"#utility.yul\":15910:15911   */\n      0x00\n        /* \"#utility.yul\":15927:15933   */\n      dup5\n        /* \"#utility.yul\":15924:16001   */\n      iszero\n      tag_301\n      jumpi\n        /* \"#utility.yul\":15976:15985   */\n      dup3\n        /* \"#utility.yul\":15971:15974   */\n      dup8\n        /* \"#utility.yul\":15967:15986   */\n      add\n        /* \"#utility.yul\":15961:15987   */\n      mload\n        /* \"#utility.yul\":15952:15987   */\n      swap1\n      pop\n        /* \"#utility.yul\":15924:16001   */\n    tag_301:\n        /* \"#utility.yul\":16027:16094   */\n      tag_302\n        /* \"#utility.yul\":16087:16093   */\n      dup6\n        /* \"#utility.yul\":16080:16085   */\n      dup3\n        /* \"#utility.yul\":16027:16094   */\n      tag_130\n      jump\t// in\n    tag_302:\n        /* \"#utility.yul\":16021:16025   */\n      dup7\n        /* \"#utility.yul\":16014:16095   */\n      sstore\n        /* \"#utility.yul\":15883:16105   */\n      pop\n        /* \"#utility.yul\":15218:16105   */\n      jump(tag_299)\n        /* \"#utility.yul\":15248:15866   */\n    tag_300:\n        /* \"#utility.yul\":15300:15304   */\n      0x1f\n        /* \"#utility.yul\":15296:15305   */\n      not\n        /* \"#utility.yul\":15288:15294   */\n      dup5\n        /* \"#utility.yul\":15284:15306   */\n      and\n        /* \"#utility.yul\":15334:15371   */\n      tag_303\n        /* \"#utility.yul\":15366:15370   */\n      dup7\n        /* \"#utility.yul\":15334:15371   */\n      tag_116\n      jump\t// in\n    tag_303:\n        /* \"#utility.yul\":15393:15394   */\n      0x00\n        /* \"#utility.yul\":15407:15615   */\n    tag_304:\n        /* \"#utility.yul\":15421:15428   */\n      dup3\n        /* \"#utility.yul\":15418:15419   */\n      dup2\n        /* \"#utility.yul\":15415:15429   */\n      lt\n        /* \"#utility.yul\":15407:15615   */\n      iszero\n      tag_306\n      jumpi\n        /* \"#utility.yul\":15500:15509   */\n      dup5\n        /* \"#utility.yul\":15495:15498   */\n      dup10\n        /* \"#utility.yul\":15491:15510   */\n      add\n        /* \"#utility.yul\":15485:15511   */\n      mload\n        /* \"#utility.yul\":15477:15483   */\n      dup3\n        /* \"#utility.yul\":15470:15512   */\n      sstore\n        /* \"#utility.yul\":15551:15552   */\n      0x01\n        /* \"#utility.yul\":15543:15549   */\n      dup3\n        /* \"#utility.yul\":15539:15553   */\n      add\n        /* \"#utility.yul\":15529:15553   */\n      swap2\n      pop\n        /* \"#utility.yul\":15598:15600   */\n      0x20\n        /* \"#utility.yul\":15587:15596   */\n      dup6\n        /* \"#utility.yul\":15583:15601   */\n      add\n        /* \"#utility.yul\":15570:15601   */\n      swap5\n      pop\n        /* \"#utility.yul\":15444:15448   */\n      0x20\n        /* \"#utility.yul\":15441:15442   */\n      dup2\n        /* \"#utility.yul\":15437:15449   */\n      add\n        /* \"#utility.yul\":15432:15449   */\n      swap1\n      pop\n        /* \"#utility.yul\":15407:15615   */\n      jump(tag_304)\n    tag_306:\n        /* \"#utility.yul\":15643:15649   */\n      dup7\n        /* \"#utility.yul\":15634:15641   */\n      dup4\n        /* \"#utility.yul\":15631:15650   */\n      lt\n        /* \"#utility.yul\":15628:15807   */\n      iszero\n      tag_307\n      jumpi\n        /* \"#utility.yul\":15701:15710   */\n      dup5\n        /* \"#utility.yul\":15696:15699   */\n      dup10\n        /* \"#utility.yul\":15692:15711   */\n      add\n        /* \"#utility.yul\":15686:15712   */\n      mload\n        /* \"#utility.yul\":15744:15792   */\n      tag_308\n        /* \"#utility.yul\":15786:15790   */\n      0x1f\n        /* \"#utility.yul\":15778:15784   */\n      dup10\n        /* \"#utility.yul\":15774:15791   */\n      and\n        /* \"#utility.yul\":15763:15772   */\n      dup3\n        /* \"#utility.yul\":15744:15792   */\n      tag_129\n      jump\t// in\n    tag_308:\n        /* \"#utility.yul\":15736:15742   */\n      dup4\n        /* \"#utility.yul\":15729:15793   */\n      sstore\n        /* \"#utility.yul\":15651:15807   */\n      pop\n        /* \"#utility.yul\":15628:15807   */\n    tag_307:\n        /* \"#utility.yul\":15853:15854   */\n      0x01\n        /* \"#utility.yul\":15849:15850   */\n      0x02\n        /* \"#utility.yul\":15841:15847   */\n      dup9\n        /* \"#utility.yul\":15837:15851   */\n      mul\n        /* \"#utility.yul\":15833:15855   */\n      add\n        /* \"#utility.yul\":15827:15831   */\n      dup9\n        /* \"#utility.yul\":15820:15856   */\n      sstore\n        /* \"#utility.yul\":15255:15866   */\n      pop\n      pop\n      pop\n        /* \"#utility.yul\":15218:16105   */\n    tag_299:\n      pop\n        /* \"#utility.yul\":14808:16111   */\n      pop\n      pop\n      pop\n        /* \"#utility.yul\":14716:16111   */\n      pop\n      pop\n      jump\t// out\n        /* \"#utility.yul\":16117:16283   */\n    tag_131:\n        /* \"#utility.yul\":16257:16275   */\n      0x4661726d65722045786974205363616e00000000000000000000000000000000\n        /* \"#utility.yul\":16253:16254   */\n      0x00\n        /* \"#utility.yul\":16245:16251   */\n      dup3\n        /* \"#utility.yul\":16241:16255   */\n      add\n        /* \"#utility.yul\":16234:16276   */\n      mstore\n        /* \"#utility.yul\":16117:16283   */\n      pop\n      jump\t// out\n        /* \"#utility.yul\":16289:16655   */\n    tag_132:\n        /* \"#utility.yul\":16431:16434   */\n      0x00\n        /* \"#utility.yul\":16452:16519   */\n      tag_311\n        /* \"#utility.yul\":16516:16518   */\n      0x10\n        /* \"#utility.yul\":16511:16514   */\n      dup4\n        /* \"#utility.yul\":16452:16519   */\n      tag_110\n      jump\t// in\n    tag_311:\n        /* \"#utility.yul\":16445:16519   */\n      swap2\n      pop\n        /* \"#utility.yul\":16528:16621   */\n      tag_312\n        /* \"#utility.yul\":16617:16620   */\n      dup3\n        /* \"#utility.yul\":16528:16621   */\n      tag_131\n      jump\t// in\n    tag_312:\n        /* \"#utility.yul\":16646:16648   */\n      0x20\n        /* \"#utility.yul\":16641:16644   */\n      dup3\n        /* \"#utility.yul\":16637:16649   */\n      add\n        /* \"#utility.yul\":16630:16649   */\n      swap1\n      pop\n        /* \"#utility.yul\":16289:16655   */\n      swap2\n      swap1\n      pop\n      jump\t// out\n        /* \"#utility.yul\":16661:17190   */\n    tag_38:\n        /* \"#utility.yul\":16855:16859   */\n      0x00\n        /* \"#utility.yul\":16893:16895   */\n      0x40\n        /* \"#utility.yul\":16882:16891   */\n      dup3\n        /* \"#utility.yul\":16878:16896   */\n      add\n        /* \"#utility.yul\":16870:16896   */\n      swap1\n      pop\n        /* \"#utility.yul\":16906:16977   */\n      tag_314\n        /* \"#utility.yul\":16974:16975   */\n      0x00\n        /* \"#utility.yul\":16963:16972   */\n      dup4\n        /* \"#utility.yul\":16959:16976   */\n      add\n        /* \"#utility.yul\":16950:16956   */\n      dup5\n        /* \"#utility.yul\":16906:16977   */\n      tag_104\n      jump\t// in\n    tag_314:\n        /* \"#utility.yul\":17024:17033   */\n      dup2\n        /* \"#utility.yul\":17018:17022   */\n      dup2\n        /* \"#utility.yul\":17014:17034   */\n      sub\n        /* \"#utility.yul\":17009:17011   */\n      0x20\n        /* \"#utility.yul\":16998:17007   */\n      dup4\n        /* \"#utility.yul\":16994:17012   */\n      add\n        /* \"#utility.yul\":16987:17035   */\n      mstore\n        /* \"#utility.yul\":17052:17183   */\n      tag_315\n        /* \"#utility.yul\":17178:17182   */\n      dup2\n        /* \"#utility.yul\":17052:17183   */\n      tag_132\n      jump\t// in\n    tag_315:\n        /* \"#utility.yul\":17044:17183   */\n      swap1\n      pop\n        /* \"#utility.yul\":16661:17190   */\n      swap3\n      swap2\n      pop\n      pop\n      jump\t// out\n        /* \"#utility.yul\":17196:17363   */\n    tag_133:\n        /* \"#utility.yul\":17336:17355   */\n      0x53656c6c657220456e747279205363616e000000000000000000000000000000\n        /* \"#utility.yul\":17332:17333   */\n      0x00\n        /* \"#utility.yul\":17324:17330   */\n      dup3\n        /* \"#utility.yul\":17320:17334   */\n      add\n        /* \"#utility.yul\":17313:17356   */\n      mstore\n        /* \"#utility.yul\":17196:17363   */\n      pop\n      jump\t// out\n        /* \"#utility.yul\":17369:17735   */\n    tag_134:\n        /* \"#utility.yul\":17511:17514   */\n      0x00\n        /* \"#utility.yul\":17532:17599   */\n      tag_318\n        /* \"#utility.yul\":17596:17598   */\n      0x11\n        /* \"#utility.yul\":17591:17594   */\n      dup4\n        /* \"#utility.yul\":17532:17599   */\n      tag_110\n      jump\t// in\n    tag_318:\n        /* \"#utility.yul\":17525:17599   */\n      swap2\n      pop\n        /* \"#utility.yul\":17608:17701   */\n      tag_319\n        /* \"#utility.yul\":17697:17700   */\n      dup3\n        /* \"#utility.yul\":17608:17701   */\n      tag_133\n      jump\t// in\n    tag_319:\n        /* \"#utility.yul\":17726:17728   */\n      0x20\n        /* \"#utility.yul\":17721:17724   */\n      dup3\n        /* \"#utility.yul\":17717:17729   */\n      add\n        /* \"#utility.yul\":17710:17729   */\n      swap1\n      pop\n        /* \"#utility.yul\":17369:17735   */\n      swap2\n      swap1\n      pop\n      jump\t// out\n        /* \"#utility.yul\":17741:18270   */\n    tag_44:\n        /* \"#utility.yul\":17935:17939   */\n      0x00\n        /* \"#utility.yul\":17973:17975   */\n      0x40\n        /* \"#utility.yul\":17962:17971   */\n      dup3\n        /* \"#utility.yul\":17958:17976   */\n      add\n        /* \"#utility.yul\":17950:17976   */\n      swap1\n      pop\n        /* \"#utility.yul\":17986:18057   */\n      tag_321\n        /* \"#utility.yul\":18054:18055   */\n      0x00\n        /* \"#utility.yul\":18043:18052   */\n      dup4\n        /* \"#utility.yul\":18039:18056   */\n      add\n        /* \"#utility.yul\":18030:18036   */\n      dup5\n        /* \"#utility.yul\":17986:18057   */\n      tag_104\n      jump\t// in\n    tag_321:\n        /* \"#utility.yul\":18104:18113   */\n      dup2\n        /* \"#utility.yul\":18098:18102   */\n      dup2\n        /* \"#utility.yul\":18094:18114   */\n      sub\n        /* \"#utility.yul\":18089:18091   */\n      0x20\n        /* \"#utility.yul\":18078:18087   */\n      dup4\n        /* \"#utility.yul\":18074:18092   */\n      add\n        /* \"#utility.yul\":18067:18115   */\n      mstore\n        /* \"#utility.yul\":18132:18263   */\n      tag_322\n        /* \"#utility.yul\":18258:18262   */\n      dup2\n        /* \"#utility.yul\":18132:18263   */\n      tag_134\n      jump\t// in\n    tag_322:\n        /* \"#utility.yul\":18124:18263   */\n      swap1\n      pop\n        /* \"#utility.yul\":17741:18270   */\n      swap3\n      swap2\n      pop\n      pop\n      jump\t// out\n        /* \"#utility.yul\":18276:18456   */\n    tag_135:\n        /* \"#utility.yul\":18324:18401   */\n      0x4e487b7100000000000000000000000000000000000000000000000000000000\n        /* \"#utility.yul\":18321:18322   */\n      0x00\n        /* \"#utility.yul\":18314:18402   */\n      mstore\n        /* \"#utility.yul\":18421:18425   */\n      0x11\n        /* \"#utility.yul\":18418:18419   */\n      0x04\n        /* \"#utility.yul\":18411:18426   */\n      mstore\n        /* \"#utility.yul\":18445:18449   */\n      0x24\n        /* \"#utility.yul\":18442:18443   */\n      0x00\n        /* \"#utility.yul\":18435:18450   */\n      revert\n        /* \"#utility.yul\":18462:18695   */\n    tag_49:\n        /* \"#utility.yul\":18501:18504   */\n      0x00\n        /* \"#utility.yul\":18524:18548   */\n      tag_325\n        /* \"#utility.yul\":18542:18547   */\n      dup3\n        /* \"#utility.yul\":18524:18548   */\n      tag_103\n      jump\t// in\n    tag_325:\n        /* \"#utility.yul\":18515:18548   */\n      swap2\n      pop\n        /* \"#utility.yul\":18570:18636   */\n      0xffffffffffffffffffffffffffffffffffffffffffffffffffffffffffffffff\n        /* \"#utility.yul\":18563:18568   */\n      dup3\n        /* \"#utility.yul\":18560:18637   */\n      sub\n        /* \"#utility.yul\":18557:18660   */\n      tag_326\n      jumpi\n        /* \"#utility.yul\":18640:18658   */\n      tag_327\n      tag_135\n      jump\t// in\n    tag_327:\n        /* \"#utility.yul\":18557:18660   */\n    tag_326:\n        /* \"#utility.yul\":18687:18688   */\n      0x01\n        /* \"#utility.yul\":18680:18685   */\n      dup3\n        /* \"#utility.yul\":18676:18689   */\n      add\n        /* \"#utility.yul\":18669:18689   */\n      swap1\n      pop\n        /* \"#utility.yul\":18462:18695   */\n      swap2\n      swap1\n      pop\n      jump\t// out\n        /* \"#utility.yul\":18701:18867   */\n    tag_136:\n        /* \"#utility.yul\":18841:18859   */\n      0x53656c6c65722045786974205363616e00000000000000000000000000000000\n        /* \"#utility.yul\":18837:18838   */\n      0x00\n        /* \"#utility.yul\":18829:18835   */\n      dup3\n        /* \"#utility.yul\":18825:18839   */\n      add\n        /* \"#utility.yul\":18818:18860   */\n      mstore\n        /* \"#utility.yul\":18701:18867   */\n      pop\n      jump\t// out\n        /* \"#utility.yul\":18873:19239   */\n    tag_137:\n        /* \"#utility.yul\":19015:19018   */\n      0x00\n        /* \"#utility.yul\":19036:19103   */\n      tag_330\n        /* \"#utility.yul\":19100:19102   */\n      0x10\n        /* \"#utility.yul\":19095:19098   */\n      dup4\n        /* \"#utility.yul\":19036:19103   */\n      tag_110\n      jump\t// in\n    tag_330:\n        /* \"#utility.yul\":19029:19103   */\n      swap2\n      pop\n        /* \"#utility.yul\":19112:19205   */\n      tag_331\n        /* \"#utility.yul\":19201:19204   */\n      dup3\n        /* \"#utility.yul\":19112:19205   */\n      tag_136\n      jump\t// in\n    tag_331:\n        /* \"#utility.yul\":19230:19232   */\n      0x20\n        /* \"#utility.yul\":19225:19228   */\n      dup3\n        /* \"#utility.yul\":19221:19233   */\n      add\n        /* \"#utility.yul\":19214:19233   */\n      swap1\n      pop\n        /* \"#utility.yul\":18873:19239   */\n      swap2\n      swap1\n      pop\n      jump\t// out\n        /* \"#utility.yul\":19245:19774   */\n    tag_53:\n        /* \"#utility.yul\":19439:19443   */\n      0x00\n        /* \"#utility.yul\":19477:19479   */\n      0x40\n        /* \"#utility.yul\":19466:19475   */\n      dup3\n        /* \"#utility.yul\":19462:19480   */\n      add\n        /* \"#utility.yul\":19454:19480   */\n      swap1\n      pop\n        /* \"#utility.yul\":19490:19561   */\n      tag_333\n        /* \"#utility.yul\":19558:19559   */\n      0x00\n        /* \"#utility.yul\":19547:19556   */\n      dup4\n        /* \"#utility.yul\":19543:19560   */\n      add\n        /* \"#utility.yul\":19534:19540   */\n      dup5\n        /* \"#utility.yul\":19490:19561   */\n      tag_104\n      jump\t// in\n    tag_333:\n        /* \"#utility.yul\":19608:19617   */\n      dup2\n        /* \"#utility.yul\":19602:19606   */\n      dup2\n        /* \"#utility.yul\":19598:19618   */\n      sub\n        /* \"#utility.yul\":19593:19595   */\n      0x20\n        /* \"#utility.yul\":19582:19591   */\n      dup4\n        /* \"#utility.yul\":19578:19596   */\n      add\n        /* \"#utility.yul\":19571:19619   */\n      mstore\n        /* \"#utility.yul\":19636:19767   */\n      tag_334\n        /* \"#utility.yul\":19762:19766   */\n      dup2\n        /* \"#utility.yul\":19636:19767   */\n      tag_137\n      jump\t// in\n    tag_334:\n        /* \"#utility.yul\":19628:19767   */\n      swap1\n      pop\n        /* \"#utility.yul\":19245:19774   */\n      swap3\n      swap2\n      pop\n      pop\n      jump\t// out\n        /* \"#utility.yul\":19780:20006   */\n    tag_138:\n        /* \"#utility.yul\":19920:19954   */\n      0x496e76616c6964207374617465206f72207363616e20636f756e7420666f7220\n        /* \"#utility.yul\":19916:19917   */\n      0x00\n        /* \"#utility.yul\":19908:19914   */\n      dup3\n        /* \"#utility.yul\":19904:19918   */\n      add\n        /* \"#utility.yul\":19897:19955   */\n      mstore\n        /* \"#utility.yul\":19989:19998   */\n      0x7468652051522e00000000000000000000000000000000000000000000000000\n        /* \"#utility.yul\":19984:19986   */\n      0x20\n        /* \"#utility.yul\":19976:19982   */\n      dup3\n        /* \"#utility.yul\":19972:19987   */\n      add\n        /* \"#utility.yul\":19965:19999   */\n      mstore\n        /* \"#utility.yul\":19780:20006   */\n      pop\n      jump\t// out\n        /* \"#utility.yul\":20012:20378   */\n    tag_139:\n        /* \"#utility.yul\":20154:20157   */\n      0x00\n        /* \"#utility.yul\":20175:20242   */\n      tag_337\n        /* \"#utility.yul\":20239:20241   */\n      0x27\n        /* \"#utility.yul\":20234:20237   */\n      dup4\n        /* \"#utility.yul\":20175:20242   */\n      tag_110\n      jump\t// in\n    tag_337:\n        /* \"#utility.yul\":20168:20242   */\n      swap2\n      pop\n        /* \"#utility.yul\":20251:20344   */\n      tag_338\n        /* \"#utility.yul\":20340:20343   */\n      dup3\n        /* \"#utility.yul\":20251:20344   */\n      tag_138\n      jump\t// in\n    tag_338:\n        /* \"#utility.yul\":20369:20371   */\n      0x40\n        /* \"#utility.yul\":20364:20367   */\n      dup3\n        /* \"#utility.yul\":20360:20372   */\n      add\n        /* \"#utility.yul\":20353:20372   */\n      swap1\n      pop\n        /* \"#utility.yul\":20012:20378   */\n      swap2\n      swap1\n      pop\n      jump\t// out\n        /* \"#utility.yul\":20384:20803   */\n    tag_56:\n        /* \"#utility.yul\":20550:20554   */\n      0x00\n        /* \"#utility.yul\":20588:20590   */\n      0x20\n        /* \"#utility.yul\":20577:20586   */\n      dup3\n        /* \"#utility.yul\":20573:20591   */\n      add\n        /* \"#utility.yul\":20565:20591   */\n      swap1\n      pop\n        /* \"#utility.yul\":20637:20646   */\n      dup2\n        /* \"#utility.yul\":20631:20635   */\n      dup2\n        /* \"#utility.yul\":20627:20647   */\n      sub\n        /* \"#utility.yul\":20623:20624   */\n      0x00\n        /* \"#utility.yul\":20612:20621   */\n      dup4\n        /* \"#utility.yul\":20608:20625   */\n      add\n        /* \"#utility.yul\":20601:20648   */\n      mstore\n        /* \"#utility.yul\":20665:20796   */\n      tag_340\n        /* \"#utility.yul\":20791:20795   */\n      dup2\n        /* \"#utility.yul\":20665:20796   */\n      tag_139\n      jump\t// in\n    tag_340:\n        /* \"#utility.yul\":20657:20796   */\n      swap1\n      pop\n        /* \"#utility.yul\":20384:20803   */\n      swap2\n      swap1\n      pop\n      jump\t// out\n        /* \"#utility.yul\":20809:21186   */\n    tag_140:\n        /* \"#utility.yul\":20897:20900   */\n      0x00\n        /* \"#utility.yul\":20925:20964   */\n      tag_342\n        /* \"#utility.yul\":20958:20963   */\n      dup3\n        /* \"#utility.yul\":20925:20964   */\n      tag_96\n      jump\t// in\n    tag_342:\n        /* \"#utility.yul\":20980:21051   */\n      tag_343\n        /* \"#utility.yul\":21044:21050   */\n      dup2\n        /* \"#utility.yul\":21039:21042   */\n      dup6\n        /* \"#utility.yul\":20980:21051   */\n      tag_110\n      jump\t// in\n    tag_343:\n        /* \"#utility.yul\":20973:21051   */\n      swap4\n      pop\n        /* \"#utility.yul\":21060:21125   */\n      tag_344\n        /* \"#utility.yul\":21118:21124   */\n      dup2\n        /* \"#utility.yul\":21113:21116   */\n      dup6\n        /* \"#utility.yul\":21106:21110   */\n      0x20\n        /* \"#utility.yul\":21099:21104   */\n      dup7\n        /* \"#utility.yul\":21095:21111   */\n      add\n        /* \"#utility.yul\":21060:21125   */\n      tag_98\n      jump\t// in\n    tag_344:\n        /* \"#utility.yul\":21150:21179   */\n      tag_345\n        /* \"#utility.yul\":21172:21178   */\n      dup2\n        /* \"#utility.yul\":21150:21179   */\n      tag_85\n      jump\t// in\n    tag_345:\n        /* \"#utility.yul\":21145:21148   */\n      dup5\n        /* \"#utility.yul\":21141:21180   */\n      add\n        /* \"#utility.yul\":21134:21180   */\n      swap2\n      pop\n        /* \"#utility.yul\":20901:21186   */\n      pop\n        /* \"#utility.yul\":20809:21186   */\n      swap3\n      swap2\n      pop\n      pop\n      jump\t// out\n        /* \"#utility.yul\":21192:21505   */\n    tag_58:\n        /* \"#utility.yul\":21305:21309   */\n      0x00\n        /* \"#utility.yul\":21343:21345   */\n      0x20\n        /* \"#utility.yul\":21332:21341   */\n      dup3\n        /* \"#utility.yul\":21328:21346   */\n      add\n        /* \"#utility.yul\":21320:21346   */\n      swap1\n      pop\n        /* \"#utility.yul\":21392:21401   */\n      dup2\n        /* \"#utility.yul\":21386:21390   */\n      dup2\n        /* \"#utility.yul\":21382:21402   */\n      sub\n        /* \"#utility.yul\":21378:21379   */\n      0x00\n        /* \"#utility.yul\":21367:21376   */\n      dup4\n        /* \"#utility.yul\":21363:21380   */\n      add\n        /* \"#utility.yul\":21356:21403   */\n      mstore\n        /* \"#utility.yul\":21420:21498   */\n      tag_347\n        /* \"#utility.yul\":21493:21497   */\n      dup2\n        /* \"#utility.yul\":21484:21490   */\n      dup5\n        /* \"#utility.yul\":21420:21498   */\n      tag_140\n      jump\t// in\n    tag_347:\n        /* \"#utility.yul\":21412:21498   */\n      swap1\n      pop\n        /* \"#utility.yul\":21192:21505   */\n      swap3\n      swap2\n      pop\n      pop\n      jump\t// out\n        /* \"#utility.yul\":21511:21678   */\n    tag_141:\n        /* \"#utility.yul\":21651:21670   */\n      0x515220616c726561647920657869737473000000000000000000000000000000\n        /* \"#utility.yul\":21647:21648   */\n      0x00\n        /* \"#utility.yul\":21639:21645   */\n      dup3\n        /* \"#utility.yul\":21635:21649   */\n      add\n        /* \"#utility.yul\":21628:21671   */\n      mstore\n        /* \"#utility.yul\":21511:21678   */\n      pop\n      jump\t// out\n        /* \"#utility.yul\":21684:22050   */\n    tag_142:\n        /* \"#utility.yul\":21826:21829   */\n      0x00\n        /* \"#utility.yul\":21847:21914   */\n      tag_350\n        /* \"#utility.yul\":21911:21913   */\n      0x11\n        /* \"#utility.yul\":21906:21909   */\n      dup4\n        /* \"#utility.yul\":21847:21914   */\n      tag_110\n      jump\t// in\n    tag_350:\n        /* \"#utility.yul\":21840:21914   */\n      swap2\n      pop\n        /* \"#utility.yul\":21923:22016   */\n      tag_351\n        /* \"#utility.yul\":22012:22015   */\n      dup3\n        /* \"#utility.yul\":21923:22016   */\n      tag_141\n      jump\t// in\n    tag_351:\n        /* \"#utility.yul\":22041:22043   */\n      0x20\n        /* \"#utility.yul\":22036:22039   */\n      dup3\n        /* \"#utility.yul\":22032:22044   */\n      add\n        /* \"#utility.yul\":22025:22044   */\n      swap1\n      pop\n        /* \"#utility.yul\":21684:22050   */\n      swap2\n      swap1\n      pop\n      jump\t// out\n        /* \"#utility.yul\":22056:22475   */\n    tag_74:\n        /* \"#utility.yul\":22222:22226   */\n      0x00\n        /* \"#utility.yul\":22260:22262   */\n      0x20\n        /* \"#utility.yul\":22249:22258   */\n      dup3\n        /* \"#utility.yul\":22245:22263   */\n      add\n        /* \"#utility.yul\":22237:22263   */\n      swap1\n      pop\n        /* \"#utility.yul\":22309:22318   */\n      dup2\n        /* \"#utility.yul\":22303:22307   */\n      dup2\n        /* \"#utility.yul\":22299:22319   */\n      sub\n        /* \"#utility.yul\":22295:22296   */\n      0x00\n        /* \"#utility.yul\":22284:22293   */\n      dup4\n        /* \"#utility.yul\":22280:22297   */\n      add\n        /* \"#utility.yul\":22273:22320   */\n      mstore\n        /* \"#utility.yul\":22337:22468   */\n      tag_353\n        /* \"#utility.yul\":22463:22467   */\n      dup2\n        /* \"#utility.yul\":22337:22468   */\n      tag_142\n      jump\t// in\n    tag_353:\n        /* \"#utility.yul\":22329:22468   */\n      swap1\n      pop\n        /* \"#utility.yul\":22056:22475   */\n      swap2\n      swap1\n      pop\n      jump\t// out\n\n    auxdata: 0xa2646970667358221220924158457822ed1017961b30447148cb1eb39b40602469122be4a6cd799f9f0464736f6c634300081a0033\n}\n",
				"bytecode": {
					"linkReferences": {},
					"object": "6080604052348015600e575f80fd5b506114678061001c5f395ff3fe608060405234801561000f575f80fd5b506004361061004a575f3560e01c80632f3a78191461004e57806376ae964c1461006a578063956736b41461009e5780639eb6608a146100ba575b5f80fd5b61006860048036038101906100639190610a42565b6100f0565b005b610084600480360381019061007f9190610a9c565b610534565b604051610095959493929190610c39565b60405180910390f35b6100b860048036038101906100b39190610a42565b6106c5565b005b6100d460048036038101906100cf9190610a9c565b61082c565b6040516100e79796959493929190610cab565b60405180910390f35b5f808381526020019081526020015f2060050160149054906101000a900460ff16610150576040517f08c379a000000000000000000000000000000000000000000000000000000000815260040161014790610d72565b60405180910390fd5b5f805f8481526020019081526020015f2090508060050160159054906101000a900460ff16156101b5576040517f08c379a00000000000000000000000000000000000000000000000000000000081526004016101ac90610e26565b60405180910390fd5b806005015f9054906101000a900473ffffffffffffffffffffffffffffffffffffffff1673ffffffffffffffffffffffffffffffffffffffff163373ffffffffffffffffffffffffffffffffffffffff1614801561021657505f8160040154145b156102b557428160020181905550805f0182908060018154018082558091505060019003905f5260205f20015f909190919091509081610256919061103e565b50600181600401819055503373ffffffffffffffffffffffffffffffffffffffff16837f8572d46a1ce70be73c5e8aa89764d91f165342a22064d26c83a41e92fd8707bf426040516102a89190611157565b60405180910390a36104e0565b60018160040154036103ba5742816001018190555033816003015f6101000a81548173ffffffffffffffffffffffffffffffffffffffff021916908373ffffffffffffffffffffffffffffffffffffffff16021790555060028160040181905550805f0182908060018154018082558091505060019003905f5260205f20015f909190919091509081610348919061103e565b5060018160050160156101000a81548160ff0219169083151502179055503373ffffffffffffffffffffffffffffffffffffffff16837f8572d46a1ce70be73c5e8aa89764d91f165342a22064d26c83a41e92fd8707bf426040516103ad91906111cd565b60405180910390a36104df565b6001816004015411156104a3578060050160159054906101000a900460ff1661049e57428160020181905550806004015f8154809291906103fa90611226565b9190505550805f0182908060018154018082558091505060019003905f5260205f20015f909190919091509081610431919061103e565b505f8160050160156101000a81548160ff0219169083151502179055503373ffffffffffffffffffffffffffffffffffffffff16837f8572d46a1ce70be73c5e8aa89764d91f165342a22064d26c83a41e92fd8707bf4260405161049591906112b7565b60405180910390a35b6104de565b6040517f08c379a00000000000000000000000000000000000000000000000000000000081526004016104d590611353565b60405180910390fd5b5b5b3373ffffffffffffffffffffffffffffffffffffffff16837f4109760b15a1e63082623016f83b009f3fd797cbfde9ab162a5ce740298497f48460405161052791906113a9565b60405180910390a3505050565b60605f805f805f808781526020019081526020015f2060050160149054906101000a900460ff1661059a576040517f08c379a000000000000000000000000000000000000000000000000000000000815260040161059190610d72565b60405180910390fd5b5f805f8881526020019081526020015f209050805f0181600101548260020154836003015f9054906101000a900473ffffffffffffffffffffffffffffffffffffffff16846004015484805480602002602001604051908101604052809291908181526020015f905b828210156106ab578382905f5260205f2001805461062090610e71565b80601f016020809104026020016040519081016040528092919081815260200182805461064c90610e71565b80156106975780601f1061066e57610100808354040283529160200191610697565b820191905f5260205f20905b81548152906001019060200180831161067a57829003601f168201915b505050505081526020019060010190610603565b505050509450955095509550955095505091939590929450565b5f808381526020019081526020015f2060050160149054906101000a900460ff1615610726576040517f08c379a000000000000000000000000000000000000000000000000000000000815260040161071d90611413565b60405180910390fd5b5f805f8481526020019081526020015f209050428160010181905550428160020181905550805f0182908060018154018082558091505060019003905f5260205f20015f90919091909150908161077d919061103e565b5060018160050160146101000a81548160ff02191690831515021790555033816005015f6101000a81548173ffffffffffffffffffffffffffffffffffffffff021916908373ffffffffffffffffffffffffffffffffffffffff16021790555060018160050160156101000a81548160ff021916908315150217905550827f06d55cef0337de42600b98c8b7b82394ae6f1315b0e0d45e103bb8fd3fb0115860405160405180910390a2505050565b5f602052805f5260405f205f91509050806001015490806002015490806003015f9054906101000a900473ffffffffffffffffffffffffffffffffffffffff1690806004015490806005015f9054906101000a900473ffffffffffffffffffffffffffffffffffffffff16908060050160149054906101000a900460ff16908060050160159054906101000a900460ff16905087565b5f604051905090565b5f80fd5b5f80fd5b5f819050919050565b6108e5816108d3565b81146108ef575f80fd5b50565b5f81359050610900816108dc565b92915050565b5f80fd5b5f80fd5b5f601f19601f8301169050919050565b7f4e487b71000000000000000000000000000000000000000000000000000000005f52604160045260245ffd5b6109548261090e565b810181811067ffffffffffffffff821117156109735761097261091e565b5b80604052505050565b5f6109856108c2565b9050610991828261094b565b919050565b5f67ffffffffffffffff8211156109b0576109af61091e565b5b6109b98261090e565b9050602081019050919050565b828183375f83830152505050565b5f6109e66109e184610996565b61097c565b905082815260208101848484011115610a0257610a0161090a565b5b610a0d8482856109c6565b509392505050565b5f82601f830112610a2957610a28610906565b5b8135610a398482602086016109d4565b91505092915050565b5f8060408385031215610a5857610a576108cb565b5b5f610a65858286016108f2565b925050602083013567ffffffffffffffff811115610a8657610a856108cf565b5b610a9285828601610a15565b9150509250929050565b5f60208284031215610ab157610ab06108cb565b5b5f610abe848285016108f2565b91505092915050565b5f81519050919050565b5f82825260208201905092915050565b5f819050602082019050919050565b5f81519050919050565b5f82825260208201905092915050565b8281835e5f83830152505050565b5f610b2282610af0565b610b2c8185610afa565b9350610b3c818560208601610b0a565b610b458161090e565b840191505092915050565b5f610b5b8383610b18565b905092915050565b5f602082019050919050565b5f610b7982610ac7565b610b838185610ad1565b935083602082028501610b9585610ae1565b805f5b85811015610bd05784840389528151610bb18582610b50565b9450610bbc83610b63565b925060208a01995050600181019050610b98565b50829750879550505050505092915050565b5f819050919050565b610bf481610be2565b82525050565b5f73ffffffffffffffffffffffffffffffffffffffff82169050919050565b5f610c2382610bfa565b9050919050565b610c3381610c19565b82525050565b5f60a0820190508181035f830152610c518188610b6f565b9050610c606020830187610beb565b610c6d6040830186610beb565b610c7a6060830185610c2a565b610c876080830184610beb565b9695505050505050565b5f8115159050919050565b610ca581610c91565b82525050565b5f60e082019050610cbe5f83018a610beb565b610ccb6020830189610beb565b610cd86040830188610c2a565b610ce56060830187610beb565b610cf26080830186610c2a565b610cff60a0830185610c9c565b610d0c60c0830184610c9c565b98975050505050505050565b5f82825260208201905092915050565b7f5152206e6f7420666f756e6400000000000000000000000000000000000000005f82015250565b5f610d5c600c83610d18565b9150610d6782610d28565b602082019050919050565b5f6020820190508181035f830152610d8981610d50565b9050919050565b7f51522069732063757272656e746c7920696e20656e7472792070686173652c205f8201527f706c65617365207761697420666f72207468652063757272656e742073656c6c60208201527f657220746f206578697400000000000000000000000000000000000000000000604082015250565b5f610e10604a83610d18565b9150610e1b82610d90565b606082019050919050565b5f6020820190508181035f830152610e3d81610e04565b9050919050565b7f4e487b71000000000000000000000000000000000000000000000000000000005f52602260045260245ffd5b5f6002820490506001821680610e8857607f821691505b602082108103610e9b57610e9a610e44565b5b50919050565b5f819050815f5260205f209050919050565b5f6020601f8301049050919050565b5f82821b905092915050565b5f60088302610efd7fffffffffffffffffffffffffffffffffffffffffffffffffffffffffffffffff82610ec2565b610f078683610ec2565b95508019841693508086168417925050509392505050565b5f819050919050565b5f610f42610f3d610f3884610be2565b610f1f565b610be2565b9050919050565b5f819050919050565b610f5b83610f28565b610f6f610f6782610f49565b848454610ece565b825550505050565b5f90565b610f83610f77565b610f8e818484610f52565b505050565b5b81811015610fb157610fa65f82610f7b565b600181019050610f94565b5050565b601f821115610ff657610fc781610ea1565b610fd084610eb3565b81016020851015610fdf578190505b610ff3610feb85610eb3565b830182610f93565b50505b505050565b5f82821c905092915050565b5f6110165f1984600802610ffb565b1980831691505092915050565b5f61102e8383611007565b9150826002028217905092915050565b61104782610af0565b67ffffffffffffffff8111156110605761105f61091e565b5b61106a8254610e71565b611075828285610fb5565b5f60209050601f8311600181146110a6575f8415611094578287015190505b61109e8582611023565b865550611105565b601f1984166110b486610ea1565b5f5b828110156110db578489015182556001820191506020850194506020810190506110b6565b868310156110f857848901516110f4601f891682611007565b8355505b6001600288020188555050505b505050505050565b7f4661726d65722045786974205363616e000000000000000000000000000000005f82015250565b5f611141601083610d18565b915061114c8261110d565b602082019050919050565b5f60408201905061116a5f830184610beb565b818103602083015261117b81611135565b905092915050565b7f53656c6c657220456e747279205363616e0000000000000000000000000000005f82015250565b5f6111b7601183610d18565b91506111c282611183565b602082019050919050565b5f6040820190506111e05f830184610beb565b81810360208301526111f1816111ab565b905092915050565b7f4e487b71000000000000000000000000000000000000000000000000000000005f52601160045260245ffd5b5f61123082610be2565b91507fffffffffffffffffffffffffffffffffffffffffffffffffffffffffffffffff8203611262576112616111f9565b5b600182019050919050565b7f53656c6c65722045786974205363616e000000000000000000000000000000005f82015250565b5f6112a1601083610d18565b91506112ac8261126d565b602082019050919050565b5f6040820190506112ca5f830184610beb565b81810360208301526112db81611295565b905092915050565b7f496e76616c6964207374617465206f72207363616e20636f756e7420666f72205f8201527f7468652051522e00000000000000000000000000000000000000000000000000602082015250565b5f61133d602783610d18565b9150611348826112e3565b604082019050919050565b5f6020820190508181035f83015261136a81611331565b9050919050565b5f61137b82610af0565b6113858185610d18565b9350611395818560208601610b0a565b61139e8161090e565b840191505092915050565b5f6020820190508181035f8301526113c18184611371565b905092915050565b7f515220616c7265616479206578697374730000000000000000000000000000005f82015250565b5f6113fd601183610d18565b9150611408826113c9565b602082019050919050565b5f6020820190508181035f83015261142a816113f1565b905091905056fea2646970667358221220924158457822ed1017961b30447148cb1eb39b40602469122be4a6cd799f9f0464736f6c634300081a0033",
					"opcodes": "PUSH1 0x80 PUSH1 0x40 MSTORE CALLVALUE DUP1 ISZERO PUSH1 0xE JUMPI PUSH0 DUP1 REVERT JUMPDEST POP PUSH2 0x1467 DUP1 PUSH2 0x1C PUSH0 CODECOPY PUSH0 RETURN INVALID PUSH1 0x80 PUSH1 0x40 MSTORE CALLVALUE DUP1 ISZERO PUSH2 0xF JUMPI PUSH0 DUP1 REVERT JUMPDEST POP PUSH1 0x4 CALLDATASIZE LT PUSH2 0x4A JUMPI PUSH0 CALLDATALOAD PUSH1 0xE0 SHR DUP1 PUSH4 0x2F3A7819 EQ PUSH2 0x4E JUMPI DUP1 PUSH4 0x76AE964C EQ PUSH2 0x6A JUMPI DUP1 PUSH4 0x956736B4 EQ PUSH2 0x9E JUMPI DUP1 PUSH4 0x9EB6608A EQ PUSH2 0xBA JUMPI JUMPDEST PUSH0 DUP1 REVERT JUMPDEST PUSH2 0x68 PUSH1 0x4 DUP1 CALLDATASIZE SUB DUP2 ADD SWAP1 PUSH2 0x63 SWAP2 SWAP1 PUSH2 0xA42 JUMP JUMPDEST PUSH2 0xF0 JUMP JUMPDEST STOP JUMPDEST PUSH2 0x84 PUSH1 0x4 DUP1 CALLDATASIZE SUB DUP2 ADD SWAP1 PUSH2 0x7F SWAP2 SWAP1 PUSH2 0xA9C JUMP JUMPDEST PUSH2 0x534 JUMP JUMPDEST PUSH1 0x40 MLOAD PUSH2 0x95 SWAP6 SWAP5 SWAP4 SWAP3 SWAP2 SWAP1 PUSH2 0xC39 JUMP JUMPDEST PUSH1 0x40 MLOAD DUP1 SWAP2 SUB SWAP1 RETURN JUMPDEST PUSH2 0xB8 PUSH1 0x4 DUP1 CALLDATASIZE SUB DUP2 ADD SWAP1 PUSH2 0xB3 SWAP2 SWAP1 PUSH2 0xA42 JUMP JUMPDEST PUSH2 0x6C5 JUMP JUMPDEST STOP JUMPDEST PUSH2 0xD4 PUSH1 0x4 DUP1 CALLDATASIZE SUB DUP2 ADD SWAP1 PUSH2 0xCF SWAP2 SWAP1 PUSH2 0xA9C JUMP JUMPDEST PUSH2 0x82C JUMP JUMPDEST PUSH1 0x40 MLOAD PUSH2 0xE7 SWAP8 SWAP7 SWAP6 SWAP5 SWAP4 SWAP3 SWAP2 SWAP1 PUSH2 0xCAB JUMP JUMPDEST PUSH1 0x40 MLOAD DUP1 SWAP2 SUB SWAP1 RETURN JUMPDEST PUSH0 DUP1 DUP4 DUP2 MSTORE PUSH1 0x20 ADD SWAP1 DUP2 MSTORE PUSH1 0x20 ADD PUSH0 KECCAK256 PUSH1 0x5 ADD PUSH1 0x14 SWAP1 SLOAD SWAP1 PUSH2 0x100 EXP SWAP1 DIV PUSH1 0xFF AND PUSH2 0x150 JUMPI PUSH1 0x40 MLOAD PUSH32 0x8C379A000000000000000000000000000000000000000000000000000000000 DUP2 MSTORE PUSH1 0x4 ADD PUSH2 0x147 SWAP1 PUSH2 0xD72 JUMP JUMPDEST PUSH1 0x40 MLOAD DUP1 SWAP2 SUB SWAP1 REVERT JUMPDEST PUSH0 DUP1 PUSH0 DUP5 DUP2 MSTORE PUSH1 0x20 ADD SWAP1 DUP2 MSTORE PUSH1 0x20 ADD PUSH0 KECCAK256 SWAP1 POP DUP1 PUSH1 0x5 ADD PUSH1 0x15 SWAP1 SLOAD SWAP1 PUSH2 0x100 EXP SWAP1 DIV PUSH1 0xFF AND ISZERO PUSH2 0x1B5 JUMPI PUSH1 0x40 MLOAD PUSH32 0x8C379A000000000000000000000000000000000000000000000000000000000 DUP2 MSTORE PUSH1 0x4 ADD PUSH2 0x1AC SWAP1 PUSH2 0xE26 JUMP JUMPDEST PUSH1 0x40 MLOAD DUP1 SWAP2 SUB SWAP1 REVERT JUMPDEST DUP1 PUSH1 0x5 ADD PUSH0 SWAP1 SLOAD SWAP1 PUSH2 0x100 EXP SWAP1 DIV PUSH20 0xFFFFFFFFFFFFFFFFFFFFFFFFFFFFFFFFFFFFFFFF AND PUSH20 0xFFFFFFFFFFFFFFFFFFFFFFFFFFFFFFFFFFFFFFFF AND CALLER PUSH20 0xFFFFFFFFFFFFFFFFFFFFFFFFFFFFFFFFFFFFFFFF AND EQ DUP1 ISZERO PUSH2 0x216 JUMPI POP PUSH0 DUP2 PUSH1 0x4 ADD SLOAD EQ JUMPDEST ISZERO PUSH2 0x2B5 JUMPI TIMESTAMP DUP2 PUSH1 0x2 ADD DUP2 SWAP1 SSTORE POP DUP1 PUSH0 ADD DUP3 SWAP1 DUP1 PUSH1 0x1 DUP2 SLOAD ADD DUP1 DUP3 SSTORE DUP1 SWAP2 POP POP PUSH1 0x1 SWAP1 SUB SWAP1 PUSH0 MSTORE PUSH1 0x20 PUSH0 KECCAK256 ADD PUSH0 SWAP1 SWAP2 SWAP1 SWAP2 SWAP1 SWAP2 POP SWAP1 DUP2 PUSH2 0x256 SWAP2 SWAP1 PUSH2 0x103E JUMP JUMPDEST POP PUSH1 0x1 DUP2 PUSH1 0x4 ADD DUP2 SWAP1 SSTORE POP CALLER PUSH20 0xFFFFFFFFFFFFFFFFFFFFFFFFFFFFFFFFFFFFFFFF AND DUP4 PUSH32 0x8572D46A1CE70BE73C5E8AA89764D91F165342A22064D26C83A41E92FD8707BF TIMESTAMP PUSH1 0x40 MLOAD PUSH2 0x2A8 SWAP2 SWAP1 PUSH2 0x1157 JUMP JUMPDEST PUSH1 0x40 MLOAD DUP1 SWAP2 SUB SWAP1 LOG3 PUSH2 0x4E0 JUMP JUMPDEST PUSH1 0x1 DUP2 PUSH1 0x4 ADD SLOAD SUB PUSH2 0x3BA JUMPI TIMESTAMP DUP2 PUSH1 0x1 ADD DUP2 SWAP1 SSTORE POP CALLER DUP2 PUSH1 0x3 ADD PUSH0 PUSH2 0x100 EXP DUP2 SLOAD DUP2 PUSH20 0xFFFFFFFFFFFFFFFFFFFFFFFFFFFFFFFFFFFFFFFF MUL NOT AND SWAP1 DUP4 PUSH20 0xFFFFFFFFFFFFFFFFFFFFFFFFFFFFFFFFFFFFFFFF AND MUL OR SWAP1 SSTORE POP PUSH1 0x2 DUP2 PUSH1 0x4 ADD DUP2 SWAP1 SSTORE POP DUP1 PUSH0 ADD DUP3 SWAP1 DUP1 PUSH1 0x1 DUP2 SLOAD ADD DUP1 DUP3 SSTORE DUP1 SWAP2 POP POP PUSH1 0x1 SWAP1 SUB SWAP1 PUSH0 MSTORE PUSH1 0x20 PUSH0 KECCAK256 ADD PUSH0 SWAP1 SWAP2 SWAP1 SWAP2 SWAP1 SWAP2 POP SWAP1 DUP2 PUSH2 0x348 SWAP2 SWAP1 PUSH2 0x103E JUMP JUMPDEST POP PUSH1 0x1 DUP2 PUSH1 0x5 ADD PUSH1 0x15 PUSH2 0x100 EXP DUP2 SLOAD DUP2 PUSH1 0xFF MUL NOT AND SWAP1 DUP4 ISZERO ISZERO MUL OR SWAP1 SSTORE POP CALLER PUSH20 0xFFFFFFFFFFFFFFFFFFFFFFFFFFFFFFFFFFFFFFFF AND DUP4 PUSH32 0x8572D46A1CE70BE73C5E8AA89764D91F165342A22064D26C83A41E92FD8707BF TIMESTAMP PUSH1 0x40 MLOAD PUSH2 0x3AD SWAP2 SWAP1 PUSH2 0x11CD JUMP JUMPDEST PUSH1 0x40 MLOAD DUP1 SWAP2 SUB SWAP1 LOG3 PUSH2 0x4DF JUMP JUMPDEST PUSH1 0x1 DUP2 PUSH1 0x4 ADD SLOAD GT ISZERO PUSH2 0x4A3 JUMPI DUP1 PUSH1 0x5 ADD PUSH1 0x15 SWAP1 SLOAD SWAP1 PUSH2 0x100 EXP SWAP1 DIV PUSH1 0xFF AND PUSH2 0x49E JUMPI TIMESTAMP DUP2 PUSH1 0x2 ADD DUP2 SWAP1 SSTORE POP DUP1 PUSH1 0x4 ADD PUSH0 DUP2 SLOAD DUP1 SWAP3 SWAP2 SWAP1 PUSH2 0x3FA SWAP1 PUSH2 0x1226 JUMP JUMPDEST SWAP2 SWAP1 POP SSTORE POP DUP1 PUSH0 ADD DUP3 SWAP1 DUP1 PUSH1 0x1 DUP2 SLOAD ADD DUP1 DUP3 SSTORE DUP1 SWAP2 POP POP PUSH1 0x1 SWAP1 SUB SWAP1 PUSH0 MSTORE PUSH1 0x20 PUSH0 KECCAK256 ADD PUSH0 SWAP1 SWAP2 SWAP1 SWAP2 SWAP1 SWAP2 POP SWAP1 DUP2 PUSH2 0x431 SWAP2 SWAP1 PUSH2 0x103E JUMP JUMPDEST POP PUSH0 DUP2 PUSH1 0x5 ADD PUSH1 0x15 PUSH2 0x100 EXP DUP2 SLOAD DUP2 PUSH1 0xFF MUL NOT AND SWAP1 DUP4 ISZERO ISZERO MUL OR SWAP1 SSTORE POP CALLER PUSH20 0xFFFFFFFFFFFFFFFFFFFFFFFFFFFFFFFFFFFFFFFF AND DUP4 PUSH32 0x8572D46A1CE70BE73C5E8AA89764D91F165342A22064D26C83A41E92FD8707BF TIMESTAMP PUSH1 0x40 MLOAD PUSH2 0x495 SWAP2 SWAP1 PUSH2 0x12B7 JUMP JUMPDEST PUSH1 0x40 MLOAD DUP1 SWAP2 SUB SWAP1 LOG3 JUMPDEST PUSH2 0x4DE JUMP JUMPDEST PUSH1 0x40 MLOAD PUSH32 0x8C379A000000000000000000000000000000000000000000000000000000000 DUP2 MSTORE PUSH1 0x4 ADD PUSH2 0x4D5 SWAP1 PUSH2 0x1353 JUMP JUMPDEST PUSH1 0x40 MLOAD DUP1 SWAP2 SUB SWAP1 REVERT JUMPDEST JUMPDEST JUMPDEST CALLER PUSH20 0xFFFFFFFFFFFFFFFFFFFFFFFFFFFFFFFFFFFFFFFF AND DUP4 PUSH32 0x4109760B15A1E63082623016F83B009F3FD797CBFDE9AB162A5CE740298497F4 DUP5 PUSH1 0x40 MLOAD PUSH2 0x527 SWAP2 SWAP1 PUSH2 0x13A9 JUMP JUMPDEST PUSH1 0x40 MLOAD DUP1 SWAP2 SUB SWAP1 LOG3 POP POP POP JUMP JUMPDEST PUSH1 0x60 PUSH0 DUP1 PUSH0 DUP1 PUSH0 DUP1 DUP8 DUP2 MSTORE PUSH1 0x20 ADD SWAP1 DUP2 MSTORE PUSH1 0x20 ADD PUSH0 KECCAK256 PUSH1 0x5 ADD PUSH1 0x14 SWAP1 SLOAD SWAP1 PUSH2 0x100 EXP SWAP1 DIV PUSH1 0xFF AND PUSH2 0x59A JUMPI PUSH1 0x40 MLOAD PUSH32 0x8C379A000000000000000000000000000000000000000000000000000000000 DUP2 MSTORE PUSH1 0x4 ADD PUSH2 0x591 SWAP1 PUSH2 0xD72 JUMP JUMPDEST PUSH1 0x40 MLOAD DUP1 SWAP2 SUB SWAP1 REVERT JUMPDEST PUSH0 DUP1 PUSH0 DUP9 DUP2 MSTORE PUSH1 0x20 ADD SWAP1 DUP2 MSTORE PUSH1 0x20 ADD PUSH0 KECCAK256 SWAP1 POP DUP1 PUSH0 ADD DUP2 PUSH1 0x1 ADD SLOAD DUP3 PUSH1 0x2 ADD SLOAD DUP4 PUSH1 0x3 ADD PUSH0 SWAP1 SLOAD SWAP1 PUSH2 0x100 EXP SWAP1 DIV PUSH20 0xFFFFFFFFFFFFFFFFFFFFFFFFFFFFFFFFFFFFFFFF AND DUP5 PUSH1 0x4 ADD SLOAD DUP5 DUP1 SLOAD DUP1 PUSH1 0x20 MUL PUSH1 0x20 ADD PUSH1 0x40 MLOAD SWAP1 DUP2 ADD PUSH1 0x40 MSTORE DUP1 SWAP3 SWAP2 SWAP1 DUP2 DUP2 MSTORE PUSH1 0x20 ADD PUSH0 SWAP1 JUMPDEST DUP3 DUP3 LT ISZERO PUSH2 0x6AB JUMPI DUP4 DUP3 SWAP1 PUSH0 MSTORE PUSH1 0x20 PUSH0 KECCAK256 ADD DUP1 SLOAD PUSH2 0x620 SWAP1 PUSH2 0xE71 JUMP JUMPDEST DUP1 PUSH1 0x1F ADD PUSH1 0x20 DUP1 SWAP2 DIV MUL PUSH1 0x20 ADD PUSH1 0x40 MLOAD SWAP1 DUP2 ADD PUSH1 0x40 MSTORE DUP1 SWAP3 SWAP2 SWAP1 DUP2 DUP2 MSTORE PUSH1 0x20 ADD DUP3 DUP1 SLOAD PUSH2 0x64C SWAP1 PUSH2 0xE71 JUMP JUMPDEST DUP1 ISZERO PUSH2 0x697 JUMPI DUP1 PUSH1 0x1F LT PUSH2 0x66E JUMPI PUSH2 0x100 DUP1 DUP4 SLOAD DIV MUL DUP4 MSTORE SWAP2 PUSH1 0x20 ADD SWAP2 PUSH2 0x697 JUMP JUMPDEST DUP3 ADD SWAP2 SWAP1 PUSH0 MSTORE PUSH1 0x20 PUSH0 KECCAK256 SWAP1 JUMPDEST DUP2 SLOAD DUP2 MSTORE SWAP1 PUSH1 0x1 ADD SWAP1 PUSH1 0x20 ADD DUP1 DUP4 GT PUSH2 0x67A JUMPI DUP3 SWAP1 SUB PUSH1 0x1F AND DUP3 ADD SWAP2 JUMPDEST POP POP POP POP POP DUP2 MSTORE PUSH1 0x20 ADD SWAP1 PUSH1 0x1 ADD SWAP1 PUSH2 0x603 JUMP JUMPDEST POP POP POP POP SWAP5 POP SWAP6 POP SWAP6 POP SWAP6 POP SWAP6 POP SWAP6 POP POP SWAP2 SWAP4 SWAP6 SWAP1 SWAP3 SWAP5 POP JUMP JUMPDEST PUSH0 DUP1 DUP4 DUP2 MSTORE PUSH1 0x20 ADD SWAP1 DUP2 MSTORE PUSH1 0x20 ADD PUSH0 KECCAK256 PUSH1 0x5 ADD PUSH1 0x14 SWAP1 SLOAD SWAP1 PUSH2 0x100 EXP SWAP1 DIV PUSH1 0xFF AND ISZERO PUSH2 0x726 JUMPI PUSH1 0x40 MLOAD PUSH32 0x8C379A000000000000000000000000000000000000000000000000000000000 DUP2 MSTORE PUSH1 0x4 ADD PUSH2 0x71D SWAP1 PUSH2 0x1413 JUMP JUMPDEST PUSH1 0x40 MLOAD DUP1 SWAP2 SUB SWAP1 REVERT JUMPDEST PUSH0 DUP1 PUSH0 DUP5 DUP2 MSTORE PUSH1 0x20 ADD SWAP1 DUP2 MSTORE PUSH1 0x20 ADD PUSH0 KECCAK256 SWAP1 POP TIMESTAMP DUP2 PUSH1 0x1 ADD DUP2 SWAP1 SSTORE POP TIMESTAMP DUP2 PUSH1 0x2 ADD DUP2 SWAP1 SSTORE POP DUP1 PUSH0 ADD DUP3 SWAP1 DUP1 PUSH1 0x1 DUP2 SLOAD ADD DUP1 DUP3 SSTORE DUP1 SWAP2 POP POP PUSH1 0x1 SWAP1 SUB SWAP1 PUSH0 MSTORE PUSH1 0x20 PUSH0 KECCAK256 ADD PUSH0 SWAP1 SWAP2 SWAP1 SWAP2 SWAP1 SWAP2 POP SWAP1 DUP2 PUSH2 0x77D SWAP2 SWAP1 PUSH2 0x103E JUMP JUMPDEST POP PUSH1 0x1 DUP2 PUSH1 0x5 ADD PUSH1 0x14 PUSH2 0x100 EXP DUP2 SLOAD DUP2 PUSH1 0xFF MUL NOT AND SWAP1 DUP4 ISZERO ISZERO MUL OR SWAP1 SSTORE POP CALLER DUP2 PUSH1 0x5 ADD PUSH0 PUSH2 0x100 EXP DUP2 SLOAD DUP2 PUSH20 0xFFFFFFFFFFFFFFFFFFFFFFFFFFFFFFFFFFFFFFFF MUL NOT AND SWAP1 DUP4 PUSH20 0xFFFFFFFFFFFFFFFFFFFFFFFFFFFFFFFFFFFFFFFF AND MUL OR SWAP1 SSTORE POP PUSH1 0x1 DUP2 PUSH1 0x5 ADD PUSH1 0x15 PUSH2 0x100 EXP DUP2 SLOAD DUP2 PUSH1 0xFF MUL NOT AND SWAP1 DUP4 ISZERO ISZERO MUL OR SWAP1 SSTORE POP DUP3 PUSH32 0x6D55CEF0337DE42600B98C8B7B82394AE6F1315B0E0D45E103BB8FD3FB01158 PUSH1 0x40 MLOAD PUSH1 0x40 MLOAD DUP1 SWAP2 SUB SWAP1 LOG2 POP POP POP JUMP JUMPDEST PUSH0 PUSH1 0x20 MSTORE DUP1 PUSH0 MSTORE PUSH1 0x40 PUSH0 KECCAK256 PUSH0 SWAP2 POP SWAP1 POP DUP1 PUSH1 0x1 ADD SLOAD SWAP1 DUP1 PUSH1 0x2 ADD SLOAD SWAP1 DUP1 PUSH1 0x3 ADD PUSH0 SWAP1 SLOAD SWAP1 PUSH2 0x100 EXP SWAP1 DIV PUSH20 0xFFFFFFFFFFFFFFFFFFFFFFFFFFFFFFFFFFFFFFFF AND SWAP1 DUP1 PUSH1 0x4 ADD SLOAD SWAP1 DUP1 PUSH1 0x5 ADD PUSH0 SWAP1 SLOAD SWAP1 PUSH2 0x100 EXP SWAP1 DIV PUSH20 0xFFFFFFFFFFFFFFFFFFFFFFFFFFFFFFFFFFFFFFFF AND SWAP1 DUP1 PUSH1 0x5 ADD PUSH1 0x14 SWAP1 SLOAD SWAP1 PUSH2 0x100 EXP SWAP1 DIV PUSH1 0xFF AND SWAP1 DUP1 PUSH1 0x5 ADD PUSH1 0x15 SWAP1 SLOAD SWAP1 PUSH2 0x100 EXP SWAP1 DIV PUSH1 0xFF AND SWAP1 POP DUP8 JUMP JUMPDEST PUSH0 PUSH1 0x40 MLOAD SWAP1 POP SWAP1 JUMP JUMPDEST PUSH0 DUP1 REVERT JUMPDEST PUSH0 DUP1 REVERT JUMPDEST PUSH0 DUP2 SWAP1 POP SWAP2 SWAP1 POP JUMP JUMPDEST PUSH2 0x8E5 DUP2 PUSH2 0x8D3 JUMP JUMPDEST DUP2 EQ PUSH2 0x8EF JUMPI PUSH0 DUP1 REVERT JUMPDEST POP JUMP JUMPDEST PUSH0 DUP2 CALLDATALOAD SWAP1 POP PUSH2 0x900 DUP2 PUSH2 0x8DC JUMP JUMPDEST SWAP3 SWAP2 POP POP JUMP JUMPDEST PUSH0 DUP1 REVERT JUMPDEST PUSH0 DUP1 REVERT JUMPDEST PUSH0 PUSH1 0x1F NOT PUSH1 0x1F DUP4 ADD AND SWAP1 POP SWAP2 SWAP1 POP JUMP JUMPDEST PUSH32 0x4E487B7100000000000000000000000000000000000000000000000000000000 PUSH0 MSTORE PUSH1 0x41 PUSH1 0x4 MSTORE PUSH1 0x24 PUSH0 REVERT JUMPDEST PUSH2 0x954 DUP3 PUSH2 0x90E JUMP JUMPDEST DUP2 ADD DUP2 DUP2 LT PUSH8 0xFFFFFFFFFFFFFFFF DUP3 GT OR ISZERO PUSH2 0x973 JUMPI PUSH2 0x972 PUSH2 0x91E JUMP JUMPDEST JUMPDEST DUP1 PUSH1 0x40 MSTORE POP POP POP JUMP JUMPDEST PUSH0 PUSH2 0x985 PUSH2 0x8C2 JUMP JUMPDEST SWAP1 POP PUSH2 0x991 DUP3 DUP3 PUSH2 0x94B JUMP JUMPDEST SWAP2 SWAP1 POP JUMP JUMPDEST PUSH0 PUSH8 0xFFFFFFFFFFFFFFFF DUP3 GT ISZERO PUSH2 0x9B0 JUMPI PUSH2 0x9AF PUSH2 0x91E JUMP JUMPDEST JUMPDEST PUSH2 0x9B9 DUP3 PUSH2 0x90E JUMP JUMPDEST SWAP1 POP PUSH1 0x20 DUP2 ADD SWAP1 POP SWAP2 SWAP1 POP JUMP JUMPDEST DUP3 DUP2 DUP4 CALLDATACOPY PUSH0 DUP4 DUP4 ADD MSTORE POP POP POP JUMP JUMPDEST PUSH0 PUSH2 0x9E6 PUSH2 0x9E1 DUP5 PUSH2 0x996 JUMP JUMPDEST PUSH2 0x97C JUMP JUMPDEST SWAP1 POP DUP3 DUP2 MSTORE PUSH1 0x20 DUP2 ADD DUP5 DUP5 DUP5 ADD GT ISZERO PUSH2 0xA02 JUMPI PUSH2 0xA01 PUSH2 0x90A JUMP JUMPDEST JUMPDEST PUSH2 0xA0D DUP5 DUP3 DUP6 PUSH2 0x9C6 JUMP JUMPDEST POP SWAP4 SWAP3 POP POP POP JUMP JUMPDEST PUSH0 DUP3 PUSH1 0x1F DUP4 ADD SLT PUSH2 0xA29 JUMPI PUSH2 0xA28 PUSH2 0x906 JUMP JUMPDEST JUMPDEST DUP2 CALLDATALOAD PUSH2 0xA39 DUP5 DUP3 PUSH1 0x20 DUP7 ADD PUSH2 0x9D4 JUMP JUMPDEST SWAP2 POP POP SWAP3 SWAP2 POP POP JUMP JUMPDEST PUSH0 DUP1 PUSH1 0x40 DUP4 DUP6 SUB SLT ISZERO PUSH2 0xA58 JUMPI PUSH2 0xA57 PUSH2 0x8CB JUMP JUMPDEST JUMPDEST PUSH0 PUSH2 0xA65 DUP6 DUP3 DUP7 ADD PUSH2 0x8F2 JUMP JUMPDEST SWAP3 POP POP PUSH1 0x20 DUP4 ADD CALLDATALOAD PUSH8 0xFFFFFFFFFFFFFFFF DUP2 GT ISZERO PUSH2 0xA86 JUMPI PUSH2 0xA85 PUSH2 0x8CF JUMP JUMPDEST JUMPDEST PUSH2 0xA92 DUP6 DUP3 DUP7 ADD PUSH2 0xA15 JUMP JUMPDEST SWAP2 POP POP SWAP3 POP SWAP3 SWAP1 POP JUMP JUMPDEST PUSH0 PUSH1 0x20 DUP3 DUP5 SUB SLT ISZERO PUSH2 0xAB1 JUMPI PUSH2 0xAB0 PUSH2 0x8CB JUMP JUMPDEST JUMPDEST PUSH0 PUSH2 0xABE DUP5 DUP3 DUP6 ADD PUSH2 0x8F2 JUMP JUMPDEST SWAP2 POP POP SWAP3 SWAP2 POP POP JUMP JUMPDEST PUSH0 DUP2 MLOAD SWAP1 POP SWAP2 SWAP1 POP JUMP JUMPDEST PUSH0 DUP3 DUP3 MSTORE PUSH1 0x20 DUP3 ADD SWAP1 POP SWAP3 SWAP2 POP POP JUMP JUMPDEST PUSH0 DUP2 SWAP1 POP PUSH1 0x20 DUP3 ADD SWAP1 POP SWAP2 SWAP1 POP JUMP JUMPDEST PUSH0 DUP2 MLOAD SWAP1 POP SWAP2 SWAP1 POP JUMP JUMPDEST PUSH0 DUP3 DUP3 MSTORE PUSH1 0x20 DUP3 ADD SWAP1 POP SWAP3 SWAP2 POP POP JUMP JUMPDEST DUP3 DUP2 DUP4 MCOPY PUSH0 DUP4 DUP4 ADD MSTORE POP POP POP JUMP JUMPDEST PUSH0 PUSH2 0xB22 DUP3 PUSH2 0xAF0 JUMP JUMPDEST PUSH2 0xB2C DUP2 DUP6 PUSH2 0xAFA JUMP JUMPDEST SWAP4 POP PUSH2 0xB3C DUP2 DUP6 PUSH1 0x20 DUP7 ADD PUSH2 0xB0A JUMP JUMPDEST PUSH2 0xB45 DUP2 PUSH2 0x90E JUMP JUMPDEST DUP5 ADD SWAP2 POP POP SWAP3 SWAP2 POP POP JUMP JUMPDEST PUSH0 PUSH2 0xB5B DUP4 DUP4 PUSH2 0xB18 JUMP JUMPDEST SWAP1 POP SWAP3 SWAP2 POP POP JUMP JUMPDEST PUSH0 PUSH1 0x20 DUP3 ADD SWAP1 POP SWAP2 SWAP1 POP JUMP JUMPDEST PUSH0 PUSH2 0xB79 DUP3 PUSH2 0xAC7 JUMP JUMPDEST PUSH2 0xB83 DUP2 DUP6 PUSH2 0xAD1 JUMP JUMPDEST SWAP4 POP DUP4 PUSH1 0x20 DUP3 MUL DUP6 ADD PUSH2 0xB95 DUP6 PUSH2 0xAE1 JUMP JUMPDEST DUP1 PUSH0 JUMPDEST DUP6 DUP2 LT ISZERO PUSH2 0xBD0 JUMPI DUP5 DUP5 SUB DUP10 MSTORE DUP2 MLOAD PUSH2 0xBB1 DUP6 DUP3 PUSH2 0xB50 JUMP JUMPDEST SWAP5 POP PUSH2 0xBBC DUP4 PUSH2 0xB63 JUMP JUMPDEST SWAP3 POP PUSH1 0x20 DUP11 ADD SWAP10 POP POP PUSH1 0x1 DUP2 ADD SWAP1 POP PUSH2 0xB98 JUMP JUMPDEST POP DUP3 SWAP8 POP DUP8 SWAP6 POP POP POP POP POP POP SWAP3 SWAP2 POP POP JUMP JUMPDEST PUSH0 DUP2 SWAP1 POP SWAP2 SWAP1 POP JUMP JUMPDEST PUSH2 0xBF4 DUP2 PUSH2 0xBE2 JUMP JUMPDEST DUP3 MSTORE POP POP JUMP JUMPDEST PUSH0 PUSH20 0xFFFFFFFFFFFFFFFFFFFFFFFFFFFFFFFFFFFFFFFF DUP3 AND SWAP1 POP SWAP2 SWAP1 POP JUMP JUMPDEST PUSH0 PUSH2 0xC23 DUP3 PUSH2 0xBFA JUMP JUMPDEST SWAP1 POP SWAP2 SWAP1 POP JUMP JUMPDEST PUSH2 0xC33 DUP2 PUSH2 0xC19 JUMP JUMPDEST DUP3 MSTORE POP POP JUMP JUMPDEST PUSH0 PUSH1 0xA0 DUP3 ADD SWAP1 POP DUP2 DUP2 SUB PUSH0 DUP4 ADD MSTORE PUSH2 0xC51 DUP2 DUP9 PUSH2 0xB6F JUMP JUMPDEST SWAP1 POP PUSH2 0xC60 PUSH1 0x20 DUP4 ADD DUP8 PUSH2 0xBEB JUMP JUMPDEST PUSH2 0xC6D PUSH1 0x40 DUP4 ADD DUP7 PUSH2 0xBEB JUMP JUMPDEST PUSH2 0xC7A PUSH1 0x60 DUP4 ADD DUP6 PUSH2 0xC2A JUMP JUMPDEST PUSH2 0xC87 PUSH1 0x80 DUP4 ADD DUP5 PUSH2 0xBEB JUMP JUMPDEST SWAP7 SWAP6 POP POP POP POP POP POP JUMP JUMPDEST PUSH0 DUP2 ISZERO ISZERO SWAP1 POP SWAP2 SWAP1 POP JUMP JUMPDEST PUSH2 0xCA5 DUP2 PUSH2 0xC91 JUMP JUMPDEST DUP3 MSTORE POP POP JUMP JUMPDEST PUSH0 PUSH1 0xE0 DUP3 ADD SWAP1 POP PUSH2 0xCBE PUSH0 DUP4 ADD DUP11 PUSH2 0xBEB JUMP JUMPDEST PUSH2 0xCCB PUSH1 0x20 DUP4 ADD DUP10 PUSH2 0xBEB JUMP JUMPDEST PUSH2 0xCD8 PUSH1 0x40 DUP4 ADD DUP9 PUSH2 0xC2A JUMP JUMPDEST PUSH2 0xCE5 PUSH1 0x60 DUP4 ADD DUP8 PUSH2 0xBEB JUMP JUMPDEST PUSH2 0xCF2 PUSH1 0x80 DUP4 ADD DUP7 PUSH2 0xC2A JUMP JUMPDEST PUSH2 0xCFF PUSH1 0xA0 DUP4 ADD DUP6 PUSH2 0xC9C JUMP JUMPDEST PUSH2 0xD0C PUSH1 0xC0 DUP4 ADD DUP5 PUSH2 0xC9C JUMP JUMPDEST SWAP9 SWAP8 POP POP POP POP POP POP POP POP JUMP JUMPDEST PUSH0 DUP3 DUP3 MSTORE PUSH1 0x20 DUP3 ADD SWAP1 POP SWAP3 SWAP2 POP POP JUMP JUMPDEST PUSH32 0x5152206E6F7420666F756E640000000000000000000000000000000000000000 PUSH0 DUP3 ADD MSTORE POP JUMP JUMPDEST PUSH0 PUSH2 0xD5C PUSH1 0xC DUP4 PUSH2 0xD18 JUMP JUMPDEST SWAP2 POP PUSH2 0xD67 DUP3 PUSH2 0xD28 JUMP JUMPDEST PUSH1 0x20 DUP3 ADD SWAP1 POP SWAP2 SWAP1 POP JUMP JUMPDEST PUSH0 PUSH1 0x20 DUP3 ADD SWAP1 POP DUP2 DUP2 SUB PUSH0 DUP4 ADD MSTORE PUSH2 0xD89 DUP2 PUSH2 0xD50 JUMP JUMPDEST SWAP1 POP SWAP2 SWAP1 POP JUMP JUMPDEST PUSH32 0x51522069732063757272656E746C7920696E20656E7472792070686173652C20 PUSH0 DUP3 ADD MSTORE PUSH32 0x706C65617365207761697420666F72207468652063757272656E742073656C6C PUSH1 0x20 DUP3 ADD MSTORE PUSH32 0x657220746F206578697400000000000000000000000000000000000000000000 PUSH1 0x40 DUP3 ADD MSTORE POP JUMP JUMPDEST PUSH0 PUSH2 0xE10 PUSH1 0x4A DUP4 PUSH2 0xD18 JUMP JUMPDEST SWAP2 POP PUSH2 0xE1B DUP3 PUSH2 0xD90 JUMP JUMPDEST PUSH1 0x60 DUP3 ADD SWAP1 POP SWAP2 SWAP1 POP JUMP JUMPDEST PUSH0 PUSH1 0x20 DUP3 ADD SWAP1 POP DUP2 DUP2 SUB PUSH0 DUP4 ADD MSTORE PUSH2 0xE3D DUP2 PUSH2 0xE04 JUMP JUMPDEST SWAP1 POP SWAP2 SWAP1 POP JUMP JUMPDEST PUSH32 0x4E487B7100000000000000000000000000000000000000000000000000000000 PUSH0 MSTORE PUSH1 0x22 PUSH1 0x4 MSTORE PUSH1 0x24 PUSH0 REVERT JUMPDEST PUSH0 PUSH1 0x2 DUP3 DIV SWAP1 POP PUSH1 0x1 DUP3 AND DUP1 PUSH2 0xE88 JUMPI PUSH1 0x7F DUP3 AND SWAP2 POP JUMPDEST PUSH1 0x20 DUP3 LT DUP2 SUB PUSH2 0xE9B JUMPI PUSH2 0xE9A PUSH2 0xE44 JUMP JUMPDEST JUMPDEST POP SWAP2 SWAP1 POP JUMP JUMPDEST PUSH0 DUP2 SWAP1 POP DUP2 PUSH0 MSTORE PUSH1 0x20 PUSH0 KECCAK256 SWAP1 POP SWAP2 SWAP1 POP JUMP JUMPDEST PUSH0 PUSH1 0x20 PUSH1 0x1F DUP4 ADD DIV SWAP1 POP SWAP2 SWAP1 POP JUMP JUMPDEST PUSH0 DUP3 DUP3 SHL SWAP1 POP SWAP3 SWAP2 POP POP JUMP JUMPDEST PUSH0 PUSH1 0x8 DUP4 MUL PUSH2 0xEFD PUSH32 0xFFFFFFFFFFFFFFFFFFFFFFFFFFFFFFFFFFFFFFFFFFFFFFFFFFFFFFFFFFFFFFFF DUP3 PUSH2 0xEC2 JUMP JUMPDEST PUSH2 0xF07 DUP7 DUP4 PUSH2 0xEC2 JUMP JUMPDEST SWAP6 POP DUP1 NOT DUP5 AND SWAP4 POP DUP1 DUP7 AND DUP5 OR SWAP3 POP POP POP SWAP4 SWAP3 POP POP POP JUMP JUMPDEST PUSH0 DUP2 SWAP1 POP SWAP2 SWAP1 POP JUMP JUMPDEST PUSH0 PUSH2 0xF42 PUSH2 0xF3D PUSH2 0xF38 DUP5 PUSH2 0xBE2 JUMP JUMPDEST PUSH2 0xF1F JUMP JUMPDEST PUSH2 0xBE2 JUMP JUMPDEST SWAP1 POP SWAP2 SWAP1 POP JUMP JUMPDEST PUSH0 DUP2 SWAP1 POP SWAP2 SWAP1 POP JUMP JUMPDEST PUSH2 0xF5B DUP4 PUSH2 0xF28 JUMP JUMPDEST PUSH2 0xF6F PUSH2 0xF67 DUP3 PUSH2 0xF49 JUMP JUMPDEST DUP5 DUP5 SLOAD PUSH2 0xECE JUMP JUMPDEST DUP3 SSTORE POP POP POP POP JUMP JUMPDEST PUSH0 SWAP1 JUMP JUMPDEST PUSH2 0xF83 PUSH2 0xF77 JUMP JUMPDEST PUSH2 0xF8E DUP2 DUP5 DUP5 PUSH2 0xF52 JUMP JUMPDEST POP POP POP JUMP JUMPDEST JUMPDEST DUP2 DUP2 LT ISZERO PUSH2 0xFB1 JUMPI PUSH2 0xFA6 PUSH0 DUP3 PUSH2 0xF7B JUMP JUMPDEST PUSH1 0x1 DUP2 ADD SWAP1 POP PUSH2 0xF94 JUMP JUMPDEST POP POP JUMP JUMPDEST PUSH1 0x1F DUP3 GT ISZERO PUSH2 0xFF6 JUMPI PUSH2 0xFC7 DUP2 PUSH2 0xEA1 JUMP JUMPDEST PUSH2 0xFD0 DUP5 PUSH2 0xEB3 JUMP JUMPDEST DUP2 ADD PUSH1 0x20 DUP6 LT ISZERO PUSH2 0xFDF JUMPI DUP2 SWAP1 POP JUMPDEST PUSH2 0xFF3 PUSH2 0xFEB DUP6 PUSH2 0xEB3 JUMP JUMPDEST DUP4 ADD DUP3 PUSH2 0xF93 JUMP JUMPDEST POP POP JUMPDEST POP POP POP JUMP JUMPDEST PUSH0 DUP3 DUP3 SHR SWAP1 POP SWAP3 SWAP2 POP POP JUMP JUMPDEST PUSH0 PUSH2 0x1016 PUSH0 NOT DUP5 PUSH1 0x8 MUL PUSH2 0xFFB JUMP JUMPDEST NOT DUP1 DUP4 AND SWAP2 POP POP SWAP3 SWAP2 POP POP JUMP JUMPDEST PUSH0 PUSH2 0x102E DUP4 DUP4 PUSH2 0x1007 JUMP JUMPDEST SWAP2 POP DUP3 PUSH1 0x2 MUL DUP3 OR SWAP1 POP SWAP3 SWAP2 POP POP JUMP JUMPDEST PUSH2 0x1047 DUP3 PUSH2 0xAF0 JUMP JUMPDEST PUSH8 0xFFFFFFFFFFFFFFFF DUP2 GT ISZERO PUSH2 0x1060 JUMPI PUSH2 0x105F PUSH2 0x91E JUMP JUMPDEST JUMPDEST PUSH2 0x106A DUP3 SLOAD PUSH2 0xE71 JUMP JUMPDEST PUSH2 0x1075 DUP3 DUP3 DUP6 PUSH2 0xFB5 JUMP JUMPDEST PUSH0 PUSH1 0x20 SWAP1 POP PUSH1 0x1F DUP4 GT PUSH1 0x1 DUP2 EQ PUSH2 0x10A6 JUMPI PUSH0 DUP5 ISZERO PUSH2 0x1094 JUMPI DUP3 DUP8 ADD MLOAD SWAP1 POP JUMPDEST PUSH2 0x109E DUP6 DUP3 PUSH2 0x1023 JUMP JUMPDEST DUP7 SSTORE POP PUSH2 0x1105 JUMP JUMPDEST PUSH1 0x1F NOT DUP5 AND PUSH2 0x10B4 DUP7 PUSH2 0xEA1 JUMP JUMPDEST PUSH0 JUMPDEST DUP3 DUP2 LT ISZERO PUSH2 0x10DB JUMPI DUP5 DUP10 ADD MLOAD DUP3 SSTORE PUSH1 0x1 DUP3 ADD SWAP2 POP PUSH1 0x20 DUP6 ADD SWAP5 POP PUSH1 0x20 DUP2 ADD SWAP1 POP PUSH2 0x10B6 JUMP JUMPDEST DUP7 DUP4 LT ISZERO PUSH2 0x10F8 JUMPI DUP5 DUP10 ADD MLOAD PUSH2 0x10F4 PUSH1 0x1F DUP10 AND DUP3 PUSH2 0x1007 JUMP JUMPDEST DUP4 SSTORE POP JUMPDEST PUSH1 0x1 PUSH1 0x2 DUP9 MUL ADD DUP9 SSTORE POP POP POP JUMPDEST POP POP POP POP POP POP JUMP JUMPDEST PUSH32 0x4661726D65722045786974205363616E00000000000000000000000000000000 PUSH0 DUP3 ADD MSTORE POP JUMP JUMPDEST PUSH0 PUSH2 0x1141 PUSH1 0x10 DUP4 PUSH2 0xD18 JUMP JUMPDEST SWAP2 POP PUSH2 0x114C DUP3 PUSH2 0x110D JUMP JUMPDEST PUSH1 0x20 DUP3 ADD SWAP1 POP SWAP2 SWAP1 POP JUMP JUMPDEST PUSH0 PUSH1 0x40 DUP3 ADD SWAP1 POP PUSH2 0x116A PUSH0 DUP4 ADD DUP5 PUSH2 0xBEB JUMP JUMPDEST DUP2 DUP2 SUB PUSH1 0x20 DUP4 ADD MSTORE PUSH2 0x117B DUP2 PUSH2 0x1135 JUMP JUMPDEST SWAP1 POP SWAP3 SWAP2 POP POP JUMP JUMPDEST PUSH32 0x53656C6C657220456E747279205363616E000000000000000000000000000000 PUSH0 DUP3 ADD MSTORE POP JUMP JUMPDEST PUSH0 PUSH2 0x11B7 PUSH1 0x11 DUP4 PUSH2 0xD18 JUMP JUMPDEST SWAP2 POP PUSH2 0x11C2 DUP3 PUSH2 0x1183 JUMP JUMPDEST PUSH1 0x20 DUP3 ADD SWAP1 POP SWAP2 SWAP1 POP JUMP JUMPDEST PUSH0 PUSH1 0x40 DUP3 ADD SWAP1 POP PUSH2 0x11E0 PUSH0 DUP4 ADD DUP5 PUSH2 0xBEB JUMP JUMPDEST DUP2 DUP2 SUB PUSH1 0x20 DUP4 ADD MSTORE PUSH2 0x11F1 DUP2 PUSH2 0x11AB JUMP JUMPDEST SWAP1 POP SWAP3 SWAP2 POP POP JUMP JUMPDEST PUSH32 0x4E487B7100000000000000000000000000000000000000000000000000000000 PUSH0 MSTORE PUSH1 0x11 PUSH1 0x4 MSTORE PUSH1 0x24 PUSH0 REVERT JUMPDEST PUSH0 PUSH2 0x1230 DUP3 PUSH2 0xBE2 JUMP JUMPDEST SWAP2 POP PUSH32 0xFFFFFFFFFFFFFFFFFFFFFFFFFFFFFFFFFFFFFFFFFFFFFFFFFFFFFFFFFFFFFFFF DUP3 SUB PUSH2 0x1262 JUMPI PUSH2 0x1261 PUSH2 0x11F9 JUMP JUMPDEST JUMPDEST PUSH1 0x1 DUP3 ADD SWAP1 POP SWAP2 SWAP1 POP JUMP JUMPDEST PUSH32 0x53656C6C65722045786974205363616E00000000000000000000000000000000 PUSH0 DUP3 ADD MSTORE POP JUMP JUMPDEST PUSH0 PUSH2 0x12A1 PUSH1 0x10 DUP4 PUSH2 0xD18 JUMP JUMPDEST SWAP2 POP PUSH2 0x12AC DUP3 PUSH2 0x126D JUMP JUMPDEST PUSH1 0x20 DUP3 ADD SWAP1 POP SWAP2 SWAP1 POP JUMP JUMPDEST PUSH0 PUSH1 0x40 DUP3 ADD SWAP1 POP PUSH2 0x12CA PUSH0 DUP4 ADD DUP5 PUSH2 0xBEB JUMP JUMPDEST DUP2 DUP2 SUB PUSH1 0x20 DUP4 ADD MSTORE PUSH2 0x12DB DUP2 PUSH2 0x1295 JUMP JUMPDEST SWAP1 POP SWAP3 SWAP2 POP POP JUMP JUMPDEST PUSH32 0x496E76616C6964207374617465206F72207363616E20636F756E7420666F7220 PUSH0 DUP3 ADD MSTORE PUSH32 0x7468652051522E00000000000000000000000000000000000000000000000000 PUSH1 0x20 DUP3 ADD MSTORE POP JUMP JUMPDEST PUSH0 PUSH2 0x133D PUSH1 0x27 DUP4 PUSH2 0xD18 JUMP JUMPDEST SWAP2 POP PUSH2 0x1348 DUP3 PUSH2 0x12E3 JUMP JUMPDEST PUSH1 0x40 DUP3 ADD SWAP1 POP SWAP2 SWAP1 POP JUMP JUMPDEST PUSH0 PUSH1 0x20 DUP3 ADD SWAP1 POP DUP2 DUP2 SUB PUSH0 DUP4 ADD MSTORE PUSH2 0x136A DUP2 PUSH2 0x1331 JUMP JUMPDEST SWAP1 POP SWAP2 SWAP1 POP JUMP JUMPDEST PUSH0 PUSH2 0x137B DUP3 PUSH2 0xAF0 JUMP JUMPDEST PUSH2 0x1385 DUP2 DUP6 PUSH2 0xD18 JUMP JUMPDEST SWAP4 POP PUSH2 0x1395 DUP2 DUP6 PUSH1 0x20 DUP7 ADD PUSH2 0xB0A JUMP JUMPDEST PUSH2 0x139E DUP2 PUSH2 0x90E JUMP JUMPDEST DUP5 ADD SWAP2 POP POP SWAP3 SWAP2 POP POP JUMP JUMPDEST PUSH0 PUSH1 0x20 DUP3 ADD SWAP1 POP DUP2 DUP2 SUB PUSH0 DUP4 ADD MSTORE PUSH2 0x13C1 DUP2 DUP5 PUSH2 0x1371 JUMP JUMPDEST SWAP1 POP SWAP3 SWAP2 POP POP JUMP JUMPDEST PUSH32 0x515220616C726561647920657869737473000000000000000000000000000000 PUSH0 DUP3 ADD MSTORE POP JUMP JUMPDEST PUSH0 PUSH2 0x13FD PUSH1 0x11 DUP4 PUSH2 0xD18 JUMP JUMPDEST SWAP2 POP PUSH2 0x1408 DUP3 PUSH2 0x13C9 JUMP JUMPDEST PUSH1 0x20 DUP3 ADD SWAP1 POP SWAP2 SWAP1 POP JUMP JUMPDEST PUSH0 PUSH1 0x20 DUP3 ADD SWAP1 POP DUP2 DUP2 SUB PUSH0 DUP4 ADD MSTORE PUSH2 0x142A DUP2 PUSH2 0x13F1 JUMP JUMPDEST SWAP1 POP SWAP2 SWAP1 POP JUMP INVALID LOG2 PUSH5 0x6970667358 0x22 SLT KECCAK256 SWAP3 COINBASE PC GASLIMIT PUSH25 0x22ED1017961B30447148CB1EB39B40602469122BE4A6CD799F SWAP16 DIV PUSH5 0x736F6C6343 STOP ADDMOD BYTE STOP CALLER "
				},
				"gasEstimates": {
					"creation": {
						"codeDepositCost": "1044600",
						"executionCost": "1085",
						"totalCost": "1045685"
					},
					"external": {
						"getQR(bytes32)": "infinite",
						"qrs(bytes32)": "infinite",
						"registerQR(bytes32,string)": "infinite",
						"scanQR(bytes32,string)": "infinite"
					}
				},
				"methodIdentifiers": {
					"getQR(bytes32)": "76ae964c",
					"qrs(bytes32)": "9eb6608a",
					"registerQR(bytes32,string)": "956736b4",
					"scanQR(bytes32,string)": "2f3a7819"
				}
			},
			"storageLayout": {
				"storage": [
					{
						"astId": 24,
						"contract": "SmartContract.sol:Spasht",
						"label": "qrs",
						"offset": 0,
						"slot": "0",
						"type": "t_mapping(t_bytes32,t_struct(QR)19_storage)"
					}
				],
				"types": {
					"t_address": {
						"encoding": "inplace",
						"label": "address",
						"numberOfBytes": "20"
					},
					"t_array(t_string_storage)dyn_storage": {
						"base": "t_string_storage",
						"encoding": "dynamic_array",
						"label": "string[]",
						"numberOfBytes": "32"
					},
					"t_bool": {
						"encoding": "inplace",
						"label": "bool",
						"numberOfBytes": "1"
					},
					"t_bytes32": {
						"encoding": "inplace",
						"label": "bytes32",
						"numberOfBytes": "32"
					},
					"t_mapping(t_bytes32,t_struct(QR)19_storage)": {
						"encoding": "mapping",
						"key": "t_bytes32",
						"label": "mapping(bytes32 => struct Spasht.QR)",
						"numberOfBytes": "32",
						"value": "t_struct(QR)19_storage"
					},
					"t_string_storage": {
						"encoding": "bytes",
						"label": "string",
						"numberOfBytes": "32"
					},
					"t_struct(QR)19_storage": {
						"encoding": "inplace",
						"label": "struct Spasht.QR",
						"members": [
							{
								"astId": 4,
								"contract": "SmartContract.sol:Spasht",
								"label": "journey",
								"offset": 0,
								"slot": "0",
								"type": "t_array(t_string_storage)dyn_storage"
							},
							{
								"astId": 6,
								"contract": "SmartContract.sol:Spasht",
								"label": "entryTime",
								"offset": 0,
								"slot": "1",
								"type": "t_uint256"
							},
							{
								"astId": 8,
								"contract": "SmartContract.sol:Spasht",
								"label": "exitTime",
								"offset": 0,
								"slot": "2",
								"type": "t_uint256"
							},
							{
								"astId": 10,
								"contract": "SmartContract.sol:Spasht",
								"label": "seller",
								"offset": 0,
								"slot": "3",
								"type": "t_address"
							},
							{
								"astId": 12,
								"contract": "SmartContract.sol:Spasht",
								"label": "scanCount",
								"offset": 0,
								"slot": "4",
								"type": "t_uint256"
							},
							{
								"astId": 14,
								"contract": "SmartContract.sol:Spasht",
								"label": "farmer",
								"offset": 0,
								"slot": "5",
								"type": "t_address"
							},
							{
								"astId": 16,
								"contract": "SmartContract.sol:Spasht",
								"label": "exists",
								"offset": 20,
								"slot": "5",
								"type": "t_bool"
							},
							{
								"astId": 18,
								"contract": "SmartContract.sol:Spasht",
								"label": "inEntryPhase",
								"offset": 21,
								"slot": "5",
								"type": "t_bool"
							}
						],
						"numberOfBytes": "192"
					},
					"t_uint256": {
						"encoding": "inplace",
						"label": "uint256",
						"numberOfBytes": "32"
					}
				}
			},
			"userdoc": {
				"kind": "user",
				"methods": {},
				"version": 1
			}
		}
	}
}